{
  "_format": "hh-sol-artifact-1",
  "contractName": "NFT",
  "sourceName": "contracts/NFT.sol",
  "abi": [
    {
      "inputs": [
        {
          "internalType": "address",
          "name": "marketplaceAddress",
          "type": "address"
        }
      ],
      "stateMutability": "nonpayable",
      "type": "constructor"
    },
    {
      "anonymous": false,
      "inputs": [
        {
          "indexed": true,
          "internalType": "address",
          "name": "owner",
          "type": "address"
        },
        {
          "indexed": true,
          "internalType": "address",
          "name": "approved",
          "type": "address"
        },
        {
          "indexed": true,
          "internalType": "uint256",
          "name": "tokenId",
          "type": "uint256"
        }
      ],
      "name": "Approval",
      "type": "event"
    },
    {
      "anonymous": false,
      "inputs": [
        {
          "indexed": true,
          "internalType": "address",
          "name": "owner",
          "type": "address"
        },
        {
          "indexed": true,
          "internalType": "address",
          "name": "operator",
          "type": "address"
        },
        {
          "indexed": false,
          "internalType": "bool",
          "name": "approved",
          "type": "bool"
        }
      ],
      "name": "ApprovalForAll",
      "type": "event"
    },
    {
      "anonymous": false,
      "inputs": [
        {
          "indexed": true,
          "internalType": "address",
          "name": "previousOwner",
          "type": "address"
        },
        {
          "indexed": true,
          "internalType": "address",
          "name": "newOwner",
          "type": "address"
        }
      ],
      "name": "OwnershipTransferred",
      "type": "event"
    },
    {
      "anonymous": false,
      "inputs": [
        {
          "indexed": true,
          "internalType": "address",
          "name": "from",
          "type": "address"
        },
        {
          "indexed": true,
          "internalType": "address",
          "name": "to",
          "type": "address"
        },
        {
          "indexed": true,
          "internalType": "uint256",
          "name": "tokenId",
          "type": "uint256"
        }
      ],
      "name": "Transfer",
      "type": "event"
    },
    {
      "inputs": [
        {
          "internalType": "address",
          "name": "to",
          "type": "address"
        },
        {
          "internalType": "uint256",
          "name": "tokenId",
          "type": "uint256"
        }
      ],
      "name": "approve",
      "outputs": [],
      "stateMutability": "nonpayable",
      "type": "function"
    },
    {
      "inputs": [
        {
          "internalType": "address",
          "name": "owner",
          "type": "address"
        }
      ],
      "name": "balanceOf",
      "outputs": [
        {
          "internalType": "uint256",
          "name": "",
          "type": "uint256"
        }
      ],
      "stateMutability": "view",
      "type": "function"
    },
    {
      "inputs": [
        {
          "internalType": "string",
          "name": "tokenURI",
          "type": "string"
        }
      ],
      "name": "createToken",
      "outputs": [
        {
          "internalType": "uint256",
          "name": "",
          "type": "uint256"
        }
      ],
      "stateMutability": "nonpayable",
      "type": "function"
    },
    {
      "inputs": [
        {
          "internalType": "uint256",
          "name": "tokenId",
          "type": "uint256"
        }
      ],
      "name": "getApproved",
      "outputs": [
        {
          "internalType": "address",
          "name": "",
          "type": "address"
        }
      ],
      "stateMutability": "view",
      "type": "function"
    },
    {
      "inputs": [
        {
          "internalType": "address",
          "name": "owner",
          "type": "address"
        },
        {
          "internalType": "address",
          "name": "operator",
          "type": "address"
        }
      ],
      "name": "isApprovedForAll",
      "outputs": [
        {
          "internalType": "bool",
          "name": "",
          "type": "bool"
        }
      ],
      "stateMutability": "view",
      "type": "function"
    },
    {
      "inputs": [],
      "name": "name",
      "outputs": [
        {
          "internalType": "string",
          "name": "",
          "type": "string"
        }
      ],
      "stateMutability": "view",
      "type": "function"
    },
    {
      "inputs": [],
      "name": "owner",
      "outputs": [
        {
          "internalType": "address",
          "name": "",
          "type": "address"
        }
      ],
      "stateMutability": "view",
      "type": "function"
    },
    {
      "inputs": [
        {
          "internalType": "uint256",
          "name": "tokenId",
          "type": "uint256"
        }
      ],
      "name": "ownerOf",
      "outputs": [
        {
          "internalType": "address",
          "name": "",
          "type": "address"
        }
      ],
      "stateMutability": "view",
      "type": "function"
    },
    {
      "inputs": [],
      "name": "renounceOwnership",
      "outputs": [],
      "stateMutability": "nonpayable",
      "type": "function"
    },
    {
      "inputs": [
        {
          "internalType": "address",
          "name": "to",
          "type": "address"
        },
        {
          "internalType": "uint256",
          "name": "tokenId",
          "type": "uint256"
        }
      ],
      "name": "safeMint",
      "outputs": [],
      "stateMutability": "nonpayable",
      "type": "function"
    },
    {
      "inputs": [
        {
          "internalType": "address",
          "name": "from",
          "type": "address"
        },
        {
          "internalType": "address",
          "name": "to",
          "type": "address"
        },
        {
          "internalType": "uint256",
          "name": "tokenId",
          "type": "uint256"
        }
      ],
      "name": "safeTransferFrom",
      "outputs": [],
      "stateMutability": "nonpayable",
      "type": "function"
    },
    {
      "inputs": [
        {
          "internalType": "address",
          "name": "from",
          "type": "address"
        },
        {
          "internalType": "address",
          "name": "to",
          "type": "address"
        },
        {
          "internalType": "uint256",
          "name": "tokenId",
          "type": "uint256"
        },
        {
          "internalType": "bytes",
          "name": "_data",
          "type": "bytes"
        }
      ],
      "name": "safeTransferFrom",
      "outputs": [],
      "stateMutability": "nonpayable",
      "type": "function"
    },
    {
      "inputs": [
        {
          "internalType": "address",
          "name": "operator",
          "type": "address"
        },
        {
          "internalType": "bool",
          "name": "approved",
          "type": "bool"
        }
      ],
      "name": "setApprovalForAll",
      "outputs": [],
      "stateMutability": "nonpayable",
      "type": "function"
    },
    {
      "inputs": [
        {
          "internalType": "bytes4",
          "name": "interfaceId",
          "type": "bytes4"
        }
      ],
      "name": "supportsInterface",
      "outputs": [
        {
          "internalType": "bool",
          "name": "",
          "type": "bool"
        }
      ],
      "stateMutability": "view",
      "type": "function"
    },
    {
      "inputs": [],
      "name": "symbol",
      "outputs": [
        {
          "internalType": "string",
          "name": "",
          "type": "string"
        }
      ],
      "stateMutability": "view",
      "type": "function"
    },
    {
      "inputs": [
        {
          "internalType": "uint256",
          "name": "index",
          "type": "uint256"
        }
      ],
      "name": "tokenByIndex",
      "outputs": [
        {
          "internalType": "uint256",
          "name": "",
          "type": "uint256"
        }
      ],
      "stateMutability": "view",
      "type": "function"
    },
    {
      "inputs": [
        {
          "internalType": "address",
          "name": "owner",
          "type": "address"
        },
        {
          "internalType": "uint256",
          "name": "index",
          "type": "uint256"
        }
      ],
      "name": "tokenOfOwnerByIndex",
      "outputs": [
        {
          "internalType": "uint256",
          "name": "",
          "type": "uint256"
        }
      ],
      "stateMutability": "view",
      "type": "function"
    },
    {
      "inputs": [
        {
          "internalType": "uint256",
          "name": "tokenId",
          "type": "uint256"
        }
      ],
      "name": "tokenURI",
      "outputs": [
        {
          "internalType": "string",
          "name": "",
          "type": "string"
        }
      ],
      "stateMutability": "view",
      "type": "function"
    },
    {
      "inputs": [],
      "name": "totalSupply",
      "outputs": [
        {
          "internalType": "uint256",
          "name": "",
          "type": "uint256"
        }
      ],
      "stateMutability": "view",
      "type": "function"
    },
    {
      "inputs": [
        {
          "internalType": "address",
          "name": "from",
          "type": "address"
        },
        {
          "internalType": "address",
          "name": "to",
          "type": "address"
        },
        {
          "internalType": "uint256",
          "name": "tokenId",
          "type": "uint256"
        }
      ],
      "name": "transferFrom",
      "outputs": [],
      "stateMutability": "nonpayable",
      "type": "function"
    },
    {
      "inputs": [
        {
          "internalType": "address",
          "name": "newOwner",
          "type": "address"
        }
      ],
      "name": "transferOwnership",
      "outputs": [],
      "stateMutability": "nonpayable",
      "type": "function"
    }
  ],
  "bytecode": "0x60806040523480156200001157600080fd5b5060405162003c8b38038062003c8b8339818101604052810190620000379190620002d4565b6040518060400160405280600781526020017f444b5665727365000000000000000000000000000000000000000000000000008152506040518060400160405280600281526020017f444b0000000000000000000000000000000000000000000000000000000000008152508160009080519060200190620000bb9291906200020d565b508060019080519060200190620000d49291906200020d565b505050620000f7620000eb6200013f60201b60201c565b6200014760201b60201c565b80600d60006101000a81548173ffffffffffffffffffffffffffffffffffffffff021916908373ffffffffffffffffffffffffffffffffffffffff16021790555050620003b3565b600033905090565b6000600b60009054906101000a900473ffffffffffffffffffffffffffffffffffffffff16905081600b60006101000a81548173ffffffffffffffffffffffffffffffffffffffff021916908373ffffffffffffffffffffffffffffffffffffffff1602179055508173ffffffffffffffffffffffffffffffffffffffff168173ffffffffffffffffffffffffffffffffffffffff167f8be0079c531659141344cd1fd0a4f28419497f9722a3daafe3b4186f6b6457e060405160405180910390a35050565b8280546200021b9062000334565b90600052602060002090601f0160209004810192826200023f57600085556200028b565b82601f106200025a57805160ff19168380011785556200028b565b828001600101855582156200028b579182015b828111156200028a5782518255916020019190600101906200026d565b5b5090506200029a91906200029e565b5090565b5b80821115620002b95760008160009055506001016200029f565b5090565b600081519050620002ce8162000399565b92915050565b600060208284031215620002e757600080fd5b6000620002f784828501620002bd565b91505092915050565b60006200030d8262000314565b9050919050565b600073ffffffffffffffffffffffffffffffffffffffff82169050919050565b600060028204905060018216806200034d57607f821691505b602082108114156200036457620003636200036a565b5b50919050565b7f4e487b7100000000000000000000000000000000000000000000000000000000600052602260045260246000fd5b620003a48162000300565b8114620003b057600080fd5b50565b6138c880620003c36000396000f3fe608060405234801561001057600080fd5b50600436106101375760003560e01c80636352211e116100b8578063a14481941161007c578063a144819414610362578063a22cb4651461037e578063b88d4fde1461039a578063c87b56dd146103b6578063e985e9c5146103e6578063f2fde38b1461041657610137565b80636352211e146102bc57806370a08231146102ec578063715018a61461031c5780638da5cb5b1461032657806395d89b411461034457610137565b806323b872dd116100ff57806323b872dd146101f45780632f745c591461021057806342842e0e1461024057806345576f941461025c5780634f6ccce71461028c57610137565b806301ffc9a71461013c57806306fdde031461016c578063081812fc1461018a578063095ea7b3146101ba57806318160ddd146101d6575b600080fd5b61015660048036038101906101519190612712565b610432565b6040516101639190612be5565b60405180910390f35b610174610444565b6040516101819190612c00565b60405180910390f35b6101a4600480360381019061019f91906127a5565b6104d6565b6040516101b19190612b7e565b60405180910390f35b6101d460048036038101906101cf91906126d6565b61055b565b005b6101de610673565b6040516101eb9190612ea2565b60405180910390f35b61020e600480360381019061020991906125d0565b610680565b005b61022a600480360381019061022591906126d6565b6106e0565b6040516102379190612ea2565b60405180910390f35b61025a600480360381019061025591906125d0565b610785565b005b61027660048036038101906102719190612764565b6107a5565b6040516102839190612ea2565b60405180910390f35b6102a660048036038101906102a191906127a5565b610809565b6040516102b39190612ea2565b60405180910390f35b6102d660048036038101906102d191906127a5565b6108a0565b6040516102e39190612b7e565b60405180910390f35b6103066004803603810190610301919061256b565b610952565b6040516103139190612ea2565b60405180910390f35b610324610a0a565b005b61032e610a92565b60405161033b9190612b7e565b60405180910390f35b61034c610abc565b6040516103599190612c00565b60405180910390f35b61037c600480360381019061037791906126d6565b610b4e565b005b6103986004803603810190610393919061269a565b610bd8565b005b6103b460048036038101906103af919061261f565b610d59565b005b6103d060048036038101906103cb91906127a5565b610dbb565b6040516103dd9190612c00565b60405180910390f35b61040060048036038101906103fb9190612594565b610dcd565b60405161040d9190612be5565b60405180910390f35b610430600480360381019061042b919061256b565b610e61565b005b600061043d82610f59565b9050919050565b606060008054610453906130f8565b80601f016020809104026020016040519081016040528092919081815260200182805461047f906130f8565b80156104cc5780601f106104a1576101008083540402835291602001916104cc565b820191906000526020600020905b8154815290600101906020018083116104af57829003601f168201915b5050505050905090565b60006104e182610fd3565b610520576040517f08c379a000000000000000000000000000000000000000000000000000000000815260040161051790612dc2565b60405180910390fd5b6004600083815260200190815260200160002060009054906101000a900473ffffffffffffffffffffffffffffffffffffffff169050919050565b6000610566826108a0565b90508073ffffffffffffffffffffffffffffffffffffffff168373ffffffffffffffffffffffffffffffffffffffff1614156105d7576040517f08c379a00000000000000000000000000000000000000000000000000000000081526004016105ce90612e42565b60405180910390fd5b8073ffffffffffffffffffffffffffffffffffffffff166105f661103f565b73ffffffffffffffffffffffffffffffffffffffff16148061062557506106248161061f61103f565b610dcd565b5b610664576040517f08c379a000000000000000000000000000000000000000000000000000000000815260040161065b90612d02565b60405180910390fd5b61066e8383611047565b505050565b6000600880549050905090565b61069161068b61103f565b82611100565b6106d0576040517f08c379a00000000000000000000000000000000000000000000000000000000081526004016106c790612e62565b60405180910390fd5b6106db8383836111de565b505050565b60006106eb83610952565b821061072c576040517f08c379a000000000000000000000000000000000000000000000000000000000815260040161072390612c22565b60405180910390fd5b600660008473ffffffffffffffffffffffffffffffffffffffff1673ffffffffffffffffffffffffffffffffffffffff168152602001908152602001600020600083815260200190815260200160002054905092915050565b6107a083838360405180602001604052806000815250610d59565b505050565b60006107b1600c61143a565b60006107bd600c611450565b90506107c9338261145e565b6107d3818461162c565b610800600d60009054906101000a900473ffffffffffffffffffffffffffffffffffffffff166001610bd8565b80915050919050565b6000610813610673565b8210610854576040517f08c379a000000000000000000000000000000000000000000000000000000000815260040161084b90612e82565b60405180910390fd5b6008828154811061088e577f4e487b7100000000000000000000000000000000000000000000000000000000600052603260045260246000fd5b90600052602060002001549050919050565b6000806002600084815260200190815260200160002060009054906101000a900473ffffffffffffffffffffffffffffffffffffffff169050600073ffffffffffffffffffffffffffffffffffffffff168173ffffffffffffffffffffffffffffffffffffffff161415610949576040517f08c379a000000000000000000000000000000000000000000000000000000000815260040161094090612d42565b60405180910390fd5b80915050919050565b60008073ffffffffffffffffffffffffffffffffffffffff168273ffffffffffffffffffffffffffffffffffffffff1614156109c3576040517f08c379a00000000000000000000000000000000000000000000000000000000081526004016109ba90612d22565b60405180910390fd5b600360008373ffffffffffffffffffffffffffffffffffffffff1673ffffffffffffffffffffffffffffffffffffffff168152602001908152602001600020549050919050565b610a1261103f565b73ffffffffffffffffffffffffffffffffffffffff16610a30610a92565b73ffffffffffffffffffffffffffffffffffffffff1614610a86576040517f08c379a0000000000000000000000000000000000000000000000000000000008152600401610a7d90612de2565b60405180910390fd5b610a9060006116a0565b565b6000600b60009054906101000a900473ffffffffffffffffffffffffffffffffffffffff16905090565b606060018054610acb906130f8565b80601f0160208091040260200160405190810160405280929190818152602001828054610af7906130f8565b8015610b445780601f10610b1957610100808354040283529160200191610b44565b820191906000526020600020905b815481529060010190602001808311610b2757829003601f168201915b5050505050905090565b610b5661103f565b73ffffffffffffffffffffffffffffffffffffffff16610b74610a92565b73ffffffffffffffffffffffffffffffffffffffff1614610bca576040517f08c379a0000000000000000000000000000000000000000000000000000000008152600401610bc190612de2565b60405180910390fd5b610bd48282611766565b5050565b610be061103f565b73ffffffffffffffffffffffffffffffffffffffff168273ffffffffffffffffffffffffffffffffffffffff161415610c4e576040517f08c379a0000000000000000000000000000000000000000000000000000000008152600401610c4590612cc2565b60405180910390fd5b8060056000610c5b61103f565b73ffffffffffffffffffffffffffffffffffffffff1673ffffffffffffffffffffffffffffffffffffffff16815260200190815260200160002060008473ffffffffffffffffffffffffffffffffffffffff1673ffffffffffffffffffffffffffffffffffffffff16815260200190815260200160002060006101000a81548160ff0219169083151502179055508173ffffffffffffffffffffffffffffffffffffffff16610d0861103f565b73ffffffffffffffffffffffffffffffffffffffff167f17307eab39ab6107e8899845ad3d59bd9653f200f220920489ca2b5937696c3183604051610d4d9190612be5565b60405180910390a35050565b610d6a610d6461103f565b83611100565b610da9576040517f08c379a0000000000000000000000000000000000000000000000000000000008152600401610da090612e62565b60405180910390fd5b610db584848484611784565b50505050565b6060610dc6826117e0565b9050919050565b6000600560008473ffffffffffffffffffffffffffffffffffffffff1673ffffffffffffffffffffffffffffffffffffffff16815260200190815260200160002060008373ffffffffffffffffffffffffffffffffffffffff1673ffffffffffffffffffffffffffffffffffffffff16815260200190815260200160002060009054906101000a900460ff16905092915050565b610e6961103f565b73ffffffffffffffffffffffffffffffffffffffff16610e87610a92565b73ffffffffffffffffffffffffffffffffffffffff1614610edd576040517f08c379a0000000000000000000000000000000000000000000000000000000008152600401610ed490612de2565b60405180910390fd5b600073ffffffffffffffffffffffffffffffffffffffff168173ffffffffffffffffffffffffffffffffffffffff161415610f4d576040517f08c379a0000000000000000000000000000000000000000000000000000000008152600401610f4490612c62565b60405180910390fd5b610f56816116a0565b50565b60007f780e9d63000000000000000000000000000000000000000000000000000000007bffffffffffffffffffffffffffffffffffffffffffffffffffffffff1916827bffffffffffffffffffffffffffffffffffffffffffffffffffffffff19161480610fcc5750610fcb82611932565b5b9050919050565b60008073ffffffffffffffffffffffffffffffffffffffff166002600084815260200190815260200160002060009054906101000a900473ffffffffffffffffffffffffffffffffffffffff1673ffffffffffffffffffffffffffffffffffffffff1614159050919050565b600033905090565b816004600083815260200190815260200160002060006101000a81548173ffffffffffffffffffffffffffffffffffffffff021916908373ffffffffffffffffffffffffffffffffffffffff160217905550808273ffffffffffffffffffffffffffffffffffffffff166110ba836108a0565b73ffffffffffffffffffffffffffffffffffffffff167f8c5be1e5ebec7d5bd14f71427d1e84f3dd0314c0f7b2291e5b200ac8c7c3b92560405160405180910390a45050565b600061110b82610fd3565b61114a576040517f08c379a000000000000000000000000000000000000000000000000000000000815260040161114190612ce2565b60405180910390fd5b6000611155836108a0565b90508073ffffffffffffffffffffffffffffffffffffffff168473ffffffffffffffffffffffffffffffffffffffff1614806111c457508373ffffffffffffffffffffffffffffffffffffffff166111ac846104d6565b73ffffffffffffffffffffffffffffffffffffffff16145b806111d557506111d48185610dcd565b5b91505092915050565b8273ffffffffffffffffffffffffffffffffffffffff166111fe826108a0565b73ffffffffffffffffffffffffffffffffffffffff1614611254576040517f08c379a000000000000000000000000000000000000000000000000000000000815260040161124b90612e02565b60405180910390fd5b600073ffffffffffffffffffffffffffffffffffffffff168273ffffffffffffffffffffffffffffffffffffffff1614156112c4576040517f08c379a00000000000000000000000000000000000000000000000000000000081526004016112bb90612ca2565b60405180910390fd5b6112cf838383611a14565b6112da600082611047565b6001600360008573ffffffffffffffffffffffffffffffffffffffff1673ffffffffffffffffffffffffffffffffffffffff168152602001908152602001600020600082825461132a919061300e565b925050819055506001600360008473ffffffffffffffffffffffffffffffffffffffff1673ffffffffffffffffffffffffffffffffffffffff16815260200190815260200160002060008282546113819190612f87565b92505081905550816002600083815260200190815260200160002060006101000a81548173ffffffffffffffffffffffffffffffffffffffff021916908373ffffffffffffffffffffffffffffffffffffffff160217905550808273ffffffffffffffffffffffffffffffffffffffff168473ffffffffffffffffffffffffffffffffffffffff167fddf252ad1be2c89b69c2b068fc378daa952ba7f163c4a11628f55a4df523b3ef60405160405180910390a4505050565b6001816000016000828254019250508190555050565b600081600001549050919050565b600073ffffffffffffffffffffffffffffffffffffffff168273ffffffffffffffffffffffffffffffffffffffff1614156114ce576040517f08c379a00000000000000000000000000000000000000000000000000000000081526004016114c590612d82565b60405180910390fd5b6114d781610fd3565b15611517576040517f08c379a000000000000000000000000000000000000000000000000000000000815260040161150e90612c82565b60405180910390fd5b61152360008383611a14565b6001600360008473ffffffffffffffffffffffffffffffffffffffff1673ffffffffffffffffffffffffffffffffffffffff16815260200190815260200160002060008282546115739190612f87565b92505081905550816002600083815260200190815260200160002060006101000a81548173ffffffffffffffffffffffffffffffffffffffff021916908373ffffffffffffffffffffffffffffffffffffffff160217905550808273ffffffffffffffffffffffffffffffffffffffff16600073ffffffffffffffffffffffffffffffffffffffff167fddf252ad1be2c89b69c2b068fc378daa952ba7f163c4a11628f55a4df523b3ef60405160405180910390a45050565b61163582610fd3565b611674576040517f08c379a000000000000000000000000000000000000000000000000000000000815260040161166b90612d62565b60405180910390fd5b80600a6000848152602001908152602001600020908051906020019061169b92919061238f565b505050565b6000600b60009054906101000a900473ffffffffffffffffffffffffffffffffffffffff16905081600b60006101000a81548173ffffffffffffffffffffffffffffffffffffffff021916908373ffffffffffffffffffffffffffffffffffffffff1602179055508173ffffffffffffffffffffffffffffffffffffffff168173ffffffffffffffffffffffffffffffffffffffff167f8be0079c531659141344cd1fd0a4f28419497f9722a3daafe3b4186f6b6457e060405160405180910390a35050565b611780828260405180602001604052806000815250611a24565b5050565b61178f8484846111de565b61179b84848484611a7f565b6117da576040517f08c379a00000000000000000000000000000000000000000000000000000000081526004016117d190612c42565b60405180910390fd5b50505050565b60606117eb82610fd3565b61182a576040517f08c379a000000000000000000000000000000000000000000000000000000000815260040161182190612da2565b60405180910390fd5b6000600a6000848152602001908152602001600020805461184a906130f8565b80601f0160208091040260200160405190810160405280929190818152602001828054611876906130f8565b80156118c35780601f10611898576101008083540402835291602001916118c3565b820191906000526020600020905b8154815290600101906020018083116118a657829003601f168201915b5050505050905060006118d4611c16565b90506000815114156118ea57819250505061192d565b60008251111561191f578082604051602001611907929190612b5a565b6040516020818303038152906040529250505061192d565b61192884611c2d565b925050505b919050565b60007f80ac58cd000000000000000000000000000000000000000000000000000000007bffffffffffffffffffffffffffffffffffffffffffffffffffffffff1916827bffffffffffffffffffffffffffffffffffffffffffffffffffffffff191614806119fd57507f5b5e139f000000000000000000000000000000000000000000000000000000007bffffffffffffffffffffffffffffffffffffffffffffffffffffffff1916827bffffffffffffffffffffffffffffffffffffffffffffffffffffffff1916145b80611a0d5750611a0c82611cd4565b5b9050919050565b611a1f838383611d3e565b505050565b611a2e838361145e565b611a3b6000848484611a7f565b611a7a576040517f08c379a0000000000000000000000000000000000000000000000000000000008152600401611a7190612c42565b60405180910390fd5b505050565b6000611aa08473ffffffffffffffffffffffffffffffffffffffff16611e52565b15611c09578373ffffffffffffffffffffffffffffffffffffffff1663150b7a02611ac961103f565b8786866040518563ffffffff1660e01b8152600401611aeb9493929190612b99565b602060405180830381600087803b158015611b0557600080fd5b505af1925050508015611b3657506040513d601f19601f82011682018060405250810190611b33919061273b565b60015b611bb9573d8060008114611b66576040519150601f19603f3d011682016040523d82523d6000602084013e611b6b565b606091505b50600081511415611bb1576040517f08c379a0000000000000000000000000000000000000000000000000000000008152600401611ba890612c42565b60405180910390fd5b805181602001fd5b63150b7a0260e01b7bffffffffffffffffffffffffffffffffffffffffffffffffffffffff1916817bffffffffffffffffffffffffffffffffffffffffffffffffffffffff191614915050611c0e565b600190505b949350505050565b606060405180602001604052806000815250905090565b6060611c3882610fd3565b611c77576040517f08c379a0000000000000000000000000000000000000000000000000000000008152600401611c6e90612e22565b60405180910390fd5b6000611c81611c16565b90506000815111611ca15760405180602001604052806000815250611ccc565b80611cab84611e65565b604051602001611cbc929190612b5a565b6040516020818303038152906040525b915050919050565b60007f01ffc9a7000000000000000000000000000000000000000000000000000000007bffffffffffffffffffffffffffffffffffffffffffffffffffffffff1916827bffffffffffffffffffffffffffffffffffffffffffffffffffffffff1916149050919050565b611d49838383612012565b600073ffffffffffffffffffffffffffffffffffffffff168373ffffffffffffffffffffffffffffffffffffffff161415611d8c57611d8781612017565b611dcb565b8173ffffffffffffffffffffffffffffffffffffffff168373ffffffffffffffffffffffffffffffffffffffff1614611dca57611dc98382612060565b5b5b600073ffffffffffffffffffffffffffffffffffffffff168273ffffffffffffffffffffffffffffffffffffffff161415611e0e57611e09816121cd565b611e4d565b8273ffffffffffffffffffffffffffffffffffffffff168273ffffffffffffffffffffffffffffffffffffffff1614611e4c57611e4b8282612310565b5b5b505050565b600080823b905060008111915050919050565b60606000821415611ead576040518060400160405280600181526020017f3000000000000000000000000000000000000000000000000000000000000000815250905061200d565b600082905060005b60008214611edf578080611ec89061315b565b915050600a82611ed89190612fdd565b9150611eb5565b60008167ffffffffffffffff811115611f21577f4e487b7100000000000000000000000000000000000000000000000000000000600052604160045260246000fd5b6040519080825280601f01601f191660200182016040528015611f535781602001600182028036833780820191505090505b5090505b6000851461200657600182611f6c919061300e565b9150600a85611f7b91906131a4565b6030611f879190612f87565b60f81b818381518110611fc3577f4e487b7100000000000000000000000000000000000000000000000000000000600052603260045260246000fd5b60200101907effffffffffffffffffffffffffffffffffffffffffffffffffffffffffffff1916908160001a905350600a85611fff9190612fdd565b9450611f57565b8093505050505b919050565b505050565b6008805490506009600083815260200190815260200160002081905550600881908060018154018082558091505060019003906000526020600020016000909190919091505550565b6000600161206d84610952565b612077919061300e565b905060006007600084815260200190815260200160002054905081811461215c576000600660008673ffffffffffffffffffffffffffffffffffffffff1673ffffffffffffffffffffffffffffffffffffffff168152602001908152602001600020600084815260200190815260200160002054905080600660008773ffffffffffffffffffffffffffffffffffffffff1673ffffffffffffffffffffffffffffffffffffffff168152602001908152602001600020600084815260200190815260200160002081905550816007600083815260200190815260200160002081905550505b6007600084815260200190815260200160002060009055600660008573ffffffffffffffffffffffffffffffffffffffff1673ffffffffffffffffffffffffffffffffffffffff16815260200190815260200160002060008381526020019081526020016000206000905550505050565b600060016008805490506121e1919061300e565b9050600060096000848152602001908152602001600020549050600060088381548110612237577f4e487b7100000000000000000000000000000000000000000000000000000000600052603260045260246000fd5b90600052602060002001549050806008838154811061227f577f4e487b7100000000000000000000000000000000000000000000000000000000600052603260045260246000fd5b9060005260206000200181905550816009600083815260200190815260200160002081905550600960008581526020019081526020016000206000905560088054806122f4577f4e487b7100000000000000000000000000000000000000000000000000000000600052603160045260246000fd5b6001900381819060005260206000200160009055905550505050565b600061231b83610952565b905081600660008573ffffffffffffffffffffffffffffffffffffffff1673ffffffffffffffffffffffffffffffffffffffff168152602001908152602001600020600083815260200190815260200160002081905550806007600084815260200190815260200160002081905550505050565b82805461239b906130f8565b90600052602060002090601f0160209004810192826123bd5760008555612404565b82601f106123d657805160ff1916838001178555612404565b82800160010185558215612404579182015b828111156124035782518255916020019190600101906123e8565b5b5090506124119190612415565b5090565b5b8082111561242e576000816000905550600101612416565b5090565b600061244561244084612ee2565b612ebd565b90508281526020810184848401111561245d57600080fd5b6124688482856130b6565b509392505050565b600061248361247e84612f13565b612ebd565b90508281526020810184848401111561249b57600080fd5b6124a68482856130b6565b509392505050565b6000813590506124bd81613836565b92915050565b6000813590506124d28161384d565b92915050565b6000813590506124e781613864565b92915050565b6000815190506124fc81613864565b92915050565b600082601f83011261251357600080fd5b8135612523848260208601612432565b91505092915050565b600082601f83011261253d57600080fd5b813561254d848260208601612470565b91505092915050565b6000813590506125658161387b565b92915050565b60006020828403121561257d57600080fd5b600061258b848285016124ae565b91505092915050565b600080604083850312156125a757600080fd5b60006125b5858286016124ae565b92505060206125c6858286016124ae565b9150509250929050565b6000806000606084860312156125e557600080fd5b60006125f3868287016124ae565b9350506020612604868287016124ae565b925050604061261586828701612556565b9150509250925092565b6000806000806080858703121561263557600080fd5b6000612643878288016124ae565b9450506020612654878288016124ae565b935050604061266587828801612556565b925050606085013567ffffffffffffffff81111561268257600080fd5b61268e87828801612502565b91505092959194509250565b600080604083850312156126ad57600080fd5b60006126bb858286016124ae565b92505060206126cc858286016124c3565b9150509250929050565b600080604083850312156126e957600080fd5b60006126f7858286016124ae565b925050602061270885828601612556565b9150509250929050565b60006020828403121561272457600080fd5b6000612732848285016124d8565b91505092915050565b60006020828403121561274d57600080fd5b600061275b848285016124ed565b91505092915050565b60006020828403121561277657600080fd5b600082013567ffffffffffffffff81111561279057600080fd5b61279c8482850161252c565b91505092915050565b6000602082840312156127b757600080fd5b60006127c584828501612556565b91505092915050565b6127d781613042565b82525050565b6127e681613054565b82525050565b60006127f782612f44565b6128018185612f5a565b93506128118185602086016130c5565b61281a81613291565b840191505092915050565b600061283082612f4f565b61283a8185612f6b565b935061284a8185602086016130c5565b61285381613291565b840191505092915050565b600061286982612f4f565b6128738185612f7c565b93506128838185602086016130c5565b80840191505092915050565b600061289c602b83612f6b565b91506128a7826132a2565b604082019050919050565b60006128bf603283612f6b565b91506128ca826132f1565b604082019050919050565b60006128e2602683612f6b565b91506128ed82613340565b604082019050919050565b6000612905601c83612f6b565b91506129108261338f565b602082019050919050565b6000612928602483612f6b565b9150612933826133b8565b604082019050919050565b600061294b601983612f6b565b915061295682613407565b602082019050919050565b600061296e602c83612f6b565b915061297982613430565b604082019050919050565b6000612991603883612f6b565b915061299c8261347f565b604082019050919050565b60006129b4602a83612f6b565b91506129bf826134ce565b604082019050919050565b60006129d7602983612f6b565b91506129e28261351d565b604082019050919050565b60006129fa602e83612f6b565b9150612a058261356c565b604082019050919050565b6000612a1d602083612f6b565b9150612a28826135bb565b602082019050919050565b6000612a40603183612f6b565b9150612a4b826135e4565b604082019050919050565b6000612a63602c83612f6b565b9150612a6e82613633565b604082019050919050565b6000612a86602083612f6b565b9150612a9182613682565b602082019050919050565b6000612aa9602983612f6b565b9150612ab4826136ab565b604082019050919050565b6000612acc602f83612f6b565b9150612ad7826136fa565b604082019050919050565b6000612aef602183612f6b565b9150612afa82613749565b604082019050919050565b6000612b12603183612f6b565b9150612b1d82613798565b604082019050919050565b6000612b35602c83612f6b565b9150612b40826137e7565b604082019050919050565b612b54816130ac565b82525050565b6000612b66828561285e565b9150612b72828461285e565b91508190509392505050565b6000602082019050612b9360008301846127ce565b92915050565b6000608082019050612bae60008301876127ce565b612bbb60208301866127ce565b612bc86040830185612b4b565b8181036060830152612bda81846127ec565b905095945050505050565b6000602082019050612bfa60008301846127dd565b92915050565b60006020820190508181036000830152612c1a8184612825565b905092915050565b60006020820190508181036000830152612c3b8161288f565b9050919050565b60006020820190508181036000830152612c5b816128b2565b9050919050565b60006020820190508181036000830152612c7b816128d5565b9050919050565b60006020820190508181036000830152612c9b816128f8565b9050919050565b60006020820190508181036000830152612cbb8161291b565b9050919050565b60006020820190508181036000830152612cdb8161293e565b9050919050565b60006020820190508181036000830152612cfb81612961565b9050919050565b60006020820190508181036000830152612d1b81612984565b9050919050565b60006020820190508181036000830152612d3b816129a7565b9050919050565b60006020820190508181036000830152612d5b816129ca565b9050919050565b60006020820190508181036000830152612d7b816129ed565b9050919050565b60006020820190508181036000830152612d9b81612a10565b9050919050565b60006020820190508181036000830152612dbb81612a33565b9050919050565b60006020820190508181036000830152612ddb81612a56565b9050919050565b60006020820190508181036000830152612dfb81612a79565b9050919050565b60006020820190508181036000830152612e1b81612a9c565b9050919050565b60006020820190508181036000830152612e3b81612abf565b9050919050565b60006020820190508181036000830152612e5b81612ae2565b9050919050565b60006020820190508181036000830152612e7b81612b05565b9050919050565b60006020820190508181036000830152612e9b81612b28565b9050919050565b6000602082019050612eb76000830184612b4b565b92915050565b6000612ec7612ed8565b9050612ed3828261312a565b919050565b6000604051905090565b600067ffffffffffffffff821115612efd57612efc613262565b5b612f0682613291565b9050602081019050919050565b600067ffffffffffffffff821115612f2e57612f2d613262565b5b612f3782613291565b9050602081019050919050565b600081519050919050565b600081519050919050565b600082825260208201905092915050565b600082825260208201905092915050565b600081905092915050565b6000612f92826130ac565b9150612f9d836130ac565b9250827fffffffffffffffffffffffffffffffffffffffffffffffffffffffffffffffff03821115612fd257612fd16131d5565b5b828201905092915050565b6000612fe8826130ac565b9150612ff3836130ac565b92508261300357613002613204565b5b828204905092915050565b6000613019826130ac565b9150613024836130ac565b925082821015613037576130366131d5565b5b828203905092915050565b600061304d8261308c565b9050919050565b60008115159050919050565b60007fffffffff0000000000000000000000000000000000000000000000000000000082169050919050565b600073ffffffffffffffffffffffffffffffffffffffff82169050919050565b6000819050919050565b82818337600083830152505050565b60005b838110156130e35780820151818401526020810190506130c8565b838111156130f2576000848401525b50505050565b6000600282049050600182168061311057607f821691505b6020821081141561312457613123613233565b5b50919050565b61313382613291565b810181811067ffffffffffffffff8211171561315257613151613262565b5b80604052505050565b6000613166826130ac565b91507fffffffffffffffffffffffffffffffffffffffffffffffffffffffffffffffff821415613199576131986131d5565b5b600182019050919050565b60006131af826130ac565b91506131ba836130ac565b9250826131ca576131c9613204565b5b828206905092915050565b7f4e487b7100000000000000000000000000000000000000000000000000000000600052601160045260246000fd5b7f4e487b7100000000000000000000000000000000000000000000000000000000600052601260045260246000fd5b7f4e487b7100000000000000000000000000000000000000000000000000000000600052602260045260246000fd5b7f4e487b7100000000000000000000000000000000000000000000000000000000600052604160045260246000fd5b6000601f19601f8301169050919050565b7f455243373231456e756d657261626c653a206f776e657220696e646578206f7560008201527f74206f6620626f756e6473000000000000000000000000000000000000000000602082015250565b7f4552433732313a207472616e7366657220746f206e6f6e20455243373231526560008201527f63656976657220696d706c656d656e7465720000000000000000000000000000602082015250565b7f4f776e61626c653a206e6577206f776e657220697320746865207a65726f206160008201527f6464726573730000000000000000000000000000000000000000000000000000602082015250565b7f4552433732313a20746f6b656e20616c7265616479206d696e74656400000000600082015250565b7f4552433732313a207472616e7366657220746f20746865207a65726f2061646460008201527f7265737300000000000000000000000000000000000000000000000000000000602082015250565b7f4552433732313a20617070726f766520746f2063616c6c657200000000000000600082015250565b7f4552433732313a206f70657261746f7220717565727920666f72206e6f6e657860008201527f697374656e7420746f6b656e0000000000000000000000000000000000000000602082015250565b7f4552433732313a20617070726f76652063616c6c6572206973206e6f74206f7760008201527f6e6572206e6f7220617070726f76656420666f7220616c6c0000000000000000602082015250565b7f4552433732313a2062616c616e636520717565727920666f7220746865207a6560008201527f726f206164647265737300000000000000000000000000000000000000000000602082015250565b7f4552433732313a206f776e657220717565727920666f72206e6f6e657869737460008201527f656e7420746f6b656e0000000000000000000000000000000000000000000000602082015250565b7f45524337323155524953746f726167653a2055524920736574206f66206e6f6e60008201527f6578697374656e7420746f6b656e000000000000000000000000000000000000602082015250565b7f4552433732313a206d696e7420746f20746865207a65726f2061646472657373600082015250565b7f45524337323155524953746f726167653a2055524920717565727920666f722060008201527f6e6f6e6578697374656e7420746f6b656e000000000000000000000000000000602082015250565b7f4552433732313a20617070726f76656420717565727920666f72206e6f6e657860008201527f697374656e7420746f6b656e0000000000000000000000000000000000000000602082015250565b7f4f776e61626c653a2063616c6c6572206973206e6f7420746865206f776e6572600082015250565b7f4552433732313a207472616e73666572206f6620746f6b656e2074686174206960008201527f73206e6f74206f776e0000000000000000000000000000000000000000000000602082015250565b7f4552433732314d657461646174613a2055524920717565727920666f72206e6f60008201527f6e6578697374656e7420746f6b656e0000000000000000000000000000000000602082015250565b7f4552433732313a20617070726f76616c20746f2063757272656e74206f776e6560008201527f7200000000000000000000000000000000000000000000000000000000000000602082015250565b7f4552433732313a207472616e736665722063616c6c6572206973206e6f74206f60008201527f776e6572206e6f7220617070726f766564000000000000000000000000000000602082015250565b7f455243373231456e756d657261626c653a20676c6f62616c20696e646578206f60008201527f7574206f6620626f756e64730000000000000000000000000000000000000000602082015250565b61383f81613042565b811461384a57600080fd5b50565b61385681613054565b811461386157600080fd5b50565b61386d81613060565b811461387857600080fd5b50565b613884816130ac565b811461388f57600080fd5b5056fea26469706673582212201c41f41159baa9d20c6ee9c04d3bfbc7cf8289b15014bdb477a64b801c0bf49464736f6c63430008040033",
  "linkReferences": {},
  "deployedLinkReferences": {}
}