{
  "_format": "hh-sol-artifact-1",
  "contractName": "NFT",
  "sourceName": "contracts/NFT.sol",
  "abi": [
    {
      "inputs": [
        {
          "internalType": "address",
          "name": "marketplaceAddress",
          "type": "address"
        }
      ],
      "stateMutability": "nonpayable",
      "type": "constructor"
    },
    {
      "anonymous": false,
      "inputs": [
        {
          "indexed": true,
          "internalType": "address",
          "name": "owner",
          "type": "address"
        },
        {
          "indexed": true,
          "internalType": "address",
          "name": "approved",
          "type": "address"
        },
        {
          "indexed": true,
          "internalType": "uint256",
          "name": "tokenId",
          "type": "uint256"
        }
      ],
      "name": "Approval",
      "type": "event"
    },
    {
      "anonymous": false,
      "inputs": [
        {
          "indexed": true,
          "internalType": "address",
          "name": "owner",
          "type": "address"
        },
        {
          "indexed": true,
          "internalType": "address",
          "name": "operator",
          "type": "address"
        },
        {
          "indexed": false,
          "internalType": "bool",
          "name": "approved",
          "type": "bool"
        }
      ],
      "name": "ApprovalForAll",
      "type": "event"
    },
    {
      "anonymous": false,
      "inputs": [
        {
          "indexed": true,
          "internalType": "address",
          "name": "previousOwner",
          "type": "address"
        },
        {
          "indexed": true,
          "internalType": "address",
          "name": "newOwner",
          "type": "address"
        }
      ],
      "name": "OwnershipTransferred",
      "type": "event"
    },
    {
      "anonymous": false,
      "inputs": [
        {
          "indexed": true,
          "internalType": "address",
          "name": "from",
          "type": "address"
        },
        {
          "indexed": true,
          "internalType": "address",
          "name": "to",
          "type": "address"
        },
        {
          "indexed": true,
          "internalType": "uint256",
          "name": "tokenId",
          "type": "uint256"
        }
      ],
      "name": "Transfer",
      "type": "event"
    },
    {
      "inputs": [
        {
          "internalType": "address",
          "name": "to",
          "type": "address"
        },
        {
          "internalType": "uint256",
          "name": "tokenId",
          "type": "uint256"
        }
      ],
      "name": "approve",
      "outputs": [],
      "stateMutability": "nonpayable",
      "type": "function"
    },
    {
      "inputs": [
        {
          "internalType": "address",
          "name": "owner",
          "type": "address"
        }
      ],
      "name": "balanceOf",
      "outputs": [
        {
          "internalType": "uint256",
          "name": "",
          "type": "uint256"
        }
      ],
      "stateMutability": "view",
      "type": "function"
    },
    {
      "inputs": [
        {
          "internalType": "string",
          "name": "URI",
          "type": "string"
        }
      ],
      "name": "createToken",
      "outputs": [
        {
          "internalType": "uint256",
          "name": "",
          "type": "uint256"
        }
      ],
      "stateMutability": "nonpayable",
      "type": "function"
    },
    {
      "inputs": [
        {
          "internalType": "uint256",
          "name": "tokenId",
          "type": "uint256"
        }
      ],
      "name": "getApproved",
      "outputs": [
        {
          "internalType": "address",
          "name": "",
          "type": "address"
        }
      ],
      "stateMutability": "view",
      "type": "function"
    },
    {
      "inputs": [],
      "name": "getNFTsByOwner",
      "outputs": [
        {
          "internalType": "string[]",
          "name": "",
          "type": "string[]"
        }
      ],
      "stateMutability": "view",
      "type": "function"
    },
    {
      "inputs": [
        {
          "internalType": "address",
          "name": "owner",
          "type": "address"
        },
        {
          "internalType": "address",
          "name": "operator",
          "type": "address"
        }
      ],
      "name": "isApprovedForAll",
      "outputs": [
        {
          "internalType": "bool",
          "name": "",
          "type": "bool"
        }
      ],
      "stateMutability": "view",
      "type": "function"
    },
    {
      "inputs": [],
      "name": "name",
      "outputs": [
        {
          "internalType": "string",
          "name": "",
          "type": "string"
        }
      ],
      "stateMutability": "view",
      "type": "function"
    },
    {
      "inputs": [],
      "name": "owner",
      "outputs": [
        {
          "internalType": "address",
          "name": "",
          "type": "address"
        }
      ],
      "stateMutability": "view",
      "type": "function"
    },
    {
      "inputs": [
        {
          "internalType": "uint256",
          "name": "tokenId",
          "type": "uint256"
        }
      ],
      "name": "ownerOf",
      "outputs": [
        {
          "internalType": "address",
          "name": "",
          "type": "address"
        }
      ],
      "stateMutability": "view",
      "type": "function"
    },
    {
      "inputs": [],
      "name": "renounceOwnership",
      "outputs": [],
      "stateMutability": "nonpayable",
      "type": "function"
    },
    {
      "inputs": [
        {
          "internalType": "address",
          "name": "to",
          "type": "address"
        },
        {
          "internalType": "uint256",
          "name": "tokenId",
          "type": "uint256"
        }
      ],
      "name": "safeMint",
      "outputs": [],
      "stateMutability": "nonpayable",
      "type": "function"
    },
    {
      "inputs": [
        {
          "internalType": "address",
          "name": "from",
          "type": "address"
        },
        {
          "internalType": "address",
          "name": "to",
          "type": "address"
        },
        {
          "internalType": "uint256",
          "name": "tokenId",
          "type": "uint256"
        }
      ],
      "name": "safeTransferFrom",
      "outputs": [],
      "stateMutability": "nonpayable",
      "type": "function"
    },
    {
      "inputs": [
        {
          "internalType": "address",
          "name": "from",
          "type": "address"
        },
        {
          "internalType": "address",
          "name": "to",
          "type": "address"
        },
        {
          "internalType": "uint256",
          "name": "tokenId",
          "type": "uint256"
        },
        {
          "internalType": "bytes",
          "name": "_data",
          "type": "bytes"
        }
      ],
      "name": "safeTransferFrom",
      "outputs": [],
      "stateMutability": "nonpayable",
      "type": "function"
    },
    {
      "inputs": [
        {
          "internalType": "address",
          "name": "operator",
          "type": "address"
        },
        {
          "internalType": "bool",
          "name": "approved",
          "type": "bool"
        }
      ],
      "name": "setApprovalForAll",
      "outputs": [],
      "stateMutability": "nonpayable",
      "type": "function"
    },
    {
      "inputs": [
        {
          "internalType": "bytes4",
          "name": "interfaceId",
          "type": "bytes4"
        }
      ],
      "name": "supportsInterface",
      "outputs": [
        {
          "internalType": "bool",
          "name": "",
          "type": "bool"
        }
      ],
      "stateMutability": "view",
      "type": "function"
    },
    {
      "inputs": [],
      "name": "symbol",
      "outputs": [
        {
          "internalType": "string",
          "name": "",
          "type": "string"
        }
      ],
      "stateMutability": "view",
      "type": "function"
    },
    {
      "inputs": [
        {
          "internalType": "uint256",
          "name": "index",
          "type": "uint256"
        }
      ],
      "name": "tokenByIndex",
      "outputs": [
        {
          "internalType": "uint256",
          "name": "",
          "type": "uint256"
        }
      ],
      "stateMutability": "view",
      "type": "function"
    },
    {
      "inputs": [
        {
          "internalType": "address",
          "name": "owner",
          "type": "address"
        },
        {
          "internalType": "uint256",
          "name": "index",
          "type": "uint256"
        }
      ],
      "name": "tokenOfOwnerByIndex",
      "outputs": [
        {
          "internalType": "uint256",
          "name": "",
          "type": "uint256"
        }
      ],
      "stateMutability": "view",
      "type": "function"
    },
    {
      "inputs": [
        {
          "internalType": "uint256",
          "name": "tokenId",
          "type": "uint256"
        }
      ],
      "name": "tokenURI",
      "outputs": [
        {
          "internalType": "string",
          "name": "",
          "type": "string"
        }
      ],
      "stateMutability": "view",
      "type": "function"
    },
    {
      "inputs": [],
      "name": "totalSupply",
      "outputs": [
        {
          "internalType": "uint256",
          "name": "",
          "type": "uint256"
        }
      ],
      "stateMutability": "view",
      "type": "function"
    },
    {
      "inputs": [
        {
          "internalType": "address",
          "name": "from",
          "type": "address"
        },
        {
          "internalType": "address",
          "name": "to",
          "type": "address"
        },
        {
          "internalType": "uint256",
          "name": "tokenId",
          "type": "uint256"
        }
      ],
      "name": "transferFrom",
      "outputs": [],
      "stateMutability": "nonpayable",
      "type": "function"
    },
    {
      "inputs": [
        {
          "internalType": "address",
          "name": "newOwner",
          "type": "address"
        }
      ],
      "name": "transferOwnership",
      "outputs": [],
      "stateMutability": "nonpayable",
      "type": "function"
    }
  ],
  "bytecode": "0x60806040523480156200001157600080fd5b5060405162003f4438038062003f448339818101604052810190620000379190620002d4565b6040518060400160405280600781526020017f444b5665727365000000000000000000000000000000000000000000000000008152506040518060400160405280600281526020017f444b0000000000000000000000000000000000000000000000000000000000008152508160009080519060200190620000bb9291906200020d565b508060019080519060200190620000d49291906200020d565b505050620000f7620000eb6200013f60201b60201c565b6200014760201b60201c565b80600d60006101000a81548173ffffffffffffffffffffffffffffffffffffffff021916908373ffffffffffffffffffffffffffffffffffffffff16021790555050620003b3565b600033905090565b6000600b60009054906101000a900473ffffffffffffffffffffffffffffffffffffffff16905081600b60006101000a81548173ffffffffffffffffffffffffffffffffffffffff021916908373ffffffffffffffffffffffffffffffffffffffff1602179055508173ffffffffffffffffffffffffffffffffffffffff168173ffffffffffffffffffffffffffffffffffffffff167f8be0079c531659141344cd1fd0a4f28419497f9722a3daafe3b4186f6b6457e060405160405180910390a35050565b8280546200021b9062000334565b90600052602060002090601f0160209004810192826200023f57600085556200028b565b82601f106200025a57805160ff19168380011785556200028b565b828001600101855582156200028b579182015b828111156200028a5782518255916020019190600101906200026d565b5b5090506200029a91906200029e565b5090565b5b80821115620002b95760008160009055506001016200029f565b5090565b600081519050620002ce8162000399565b92915050565b600060208284031215620002e757600080fd5b6000620002f784828501620002bd565b91505092915050565b60006200030d8262000314565b9050919050565b600073ffffffffffffffffffffffffffffffffffffffff82169050919050565b600060028204905060018216806200034d57607f821691505b602082108114156200036457620003636200036a565b5b50919050565b7f4e487b7100000000000000000000000000000000000000000000000000000000600052602260045260246000fd5b620003a48162000300565b8114620003b057600080fd5b50565b613b8180620003c36000396000f3fe608060405234801561001057600080fd5b50600436106101425760003560e01c806370a08231116100b8578063a22cb4651161007c578063a22cb46514610389578063b88d4fde146103a5578063c87b56dd146103c1578063e6b348a4146103f1578063e985e9c51461040f578063f2fde38b1461043f57610142565b806370a08231146102f7578063715018a6146103275780638da5cb5b1461033157806395d89b411461034f578063a14481941461036d57610142565b806323b872dd1161010a57806323b872dd146101ff5780632f745c591461021b57806342842e0e1461024b57806345576f94146102675780634f6ccce7146102975780636352211e146102c757610142565b806301ffc9a71461014757806306fdde0314610177578063081812fc14610195578063095ea7b3146101c557806318160ddd146101e1575b600080fd5b610161600480360381019061015c919061289d565b61045b565b60405161016e9190612e54565b60405180910390f35b61017f61046d565b60405161018c9190612e6f565b60405180910390f35b6101af60048036038101906101aa9190612930565b6104ff565b6040516101bc9190612dcb565b60405180910390f35b6101df60048036038101906101da9190612861565b610584565b005b6101e961069c565b6040516101f69190613111565b60405180910390f35b6102196004803603810190610214919061275b565b6106a9565b005b61023560048036038101906102309190612861565b610709565b6040516102429190613111565b60405180910390f35b6102656004803603810190610260919061275b565b6107ae565b005b610281600480360381019061027c91906128ef565b6107ce565b60405161028e9190613111565b60405180910390f35b6102b160048036038101906102ac9190612930565b610832565b6040516102be9190613111565b60405180910390f35b6102e160048036038101906102dc9190612930565b6108c9565b6040516102ee9190612dcb565b60405180910390f35b610311600480360381019061030c91906126f6565b61097b565b60405161031e9190613111565b60405180910390f35b61032f610a33565b005b610339610abb565b6040516103469190612dcb565b60405180910390f35b610357610ae5565b6040516103649190612e6f565b60405180910390f35b61038760048036038101906103829190612861565b610b77565b005b6103a3600480360381019061039e9190612825565b610c01565b005b6103bf60048036038101906103ba91906127aa565b610d82565b005b6103db60048036038101906103d69190612930565b610de4565b6040516103e89190612e6f565b60405180910390f35b6103f9610df6565b6040516104069190612e32565b60405180910390f35b6104296004803603810190610424919061271f565b610f58565b6040516104369190612e54565b60405180910390f35b610459600480360381019061045491906126f6565b610fec565b005b6000610466826110e4565b9050919050565b60606000805461047c906133b1565b80601f01602080910402602001604051908101604052809291908181526020018280546104a8906133b1565b80156104f55780601f106104ca576101008083540402835291602001916104f5565b820191906000526020600020905b8154815290600101906020018083116104d857829003601f168201915b5050505050905090565b600061050a8261115e565b610549576040517f08c379a000000000000000000000000000000000000000000000000000000000815260040161054090613031565b60405180910390fd5b6004600083815260200190815260200160002060009054906101000a900473ffffffffffffffffffffffffffffffffffffffff169050919050565b600061058f826108c9565b90508073ffffffffffffffffffffffffffffffffffffffff168373ffffffffffffffffffffffffffffffffffffffff161415610600576040517f08c379a00000000000000000000000000000000000000000000000000000000081526004016105f7906130b1565b60405180910390fd5b8073ffffffffffffffffffffffffffffffffffffffff1661061f6111ca565b73ffffffffffffffffffffffffffffffffffffffff16148061064e575061064d816106486111ca565b610f58565b5b61068d576040517f08c379a000000000000000000000000000000000000000000000000000000000815260040161068490612f71565b60405180910390fd5b61069783836111d2565b505050565b6000600880549050905090565b6106ba6106b46111ca565b8261128b565b6106f9576040517f08c379a00000000000000000000000000000000000000000000000000000000081526004016106f0906130d1565b60405180910390fd5b610704838383611369565b505050565b60006107148361097b565b8210610755576040517f08c379a000000000000000000000000000000000000000000000000000000000815260040161074c90612e91565b60405180910390fd5b600660008473ffffffffffffffffffffffffffffffffffffffff1673ffffffffffffffffffffffffffffffffffffffff168152602001908152602001600020600083815260200190815260200160002054905092915050565b6107c983838360405180602001604052806000815250610d82565b505050565b60006107da600c6115c5565b60006107e6600c6115db565b90506107f233826115e9565b6107fc81846117b7565b610829600d60009054906101000a900473ffffffffffffffffffffffffffffffffffffffff166001610c01565b80915050919050565b600061083c61069c565b821061087d576040517f08c379a0000000000000000000000000000000000000000000000000000000008152600401610874906130f1565b60405180910390fd5b600882815481106108b7577f4e487b7100000000000000000000000000000000000000000000000000000000600052603260045260246000fd5b90600052602060002001549050919050565b6000806002600084815260200190815260200160002060009054906101000a900473ffffffffffffffffffffffffffffffffffffffff169050600073ffffffffffffffffffffffffffffffffffffffff168173ffffffffffffffffffffffffffffffffffffffff161415610972576040517f08c379a000000000000000000000000000000000000000000000000000000000815260040161096990612fb1565b60405180910390fd5b80915050919050565b60008073ffffffffffffffffffffffffffffffffffffffff168273ffffffffffffffffffffffffffffffffffffffff1614156109ec576040517f08c379a00000000000000000000000000000000000000000000000000000000081526004016109e390612f91565b60405180910390fd5b600360008373ffffffffffffffffffffffffffffffffffffffff1673ffffffffffffffffffffffffffffffffffffffff168152602001908152602001600020549050919050565b610a3b6111ca565b73ffffffffffffffffffffffffffffffffffffffff16610a59610abb565b73ffffffffffffffffffffffffffffffffffffffff1614610aaf576040517f08c379a0000000000000000000000000000000000000000000000000000000008152600401610aa690613051565b60405180910390fd5b610ab9600061182b565b565b6000600b60009054906101000a900473ffffffffffffffffffffffffffffffffffffffff16905090565b606060018054610af4906133b1565b80601f0160208091040260200160405190810160405280929190818152602001828054610b20906133b1565b8015610b6d5780601f10610b4257610100808354040283529160200191610b6d565b820191906000526020600020905b815481529060010190602001808311610b5057829003601f168201915b5050505050905090565b610b7f6111ca565b73ffffffffffffffffffffffffffffffffffffffff16610b9d610abb565b73ffffffffffffffffffffffffffffffffffffffff1614610bf3576040517f08c379a0000000000000000000000000000000000000000000000000000000008152600401610bea90613051565b60405180910390fd5b610bfd82826118f1565b5050565b610c096111ca565b73ffffffffffffffffffffffffffffffffffffffff168273ffffffffffffffffffffffffffffffffffffffff161415610c77576040517f08c379a0000000000000000000000000000000000000000000000000000000008152600401610c6e90612f31565b60405180910390fd5b8060056000610c846111ca565b73ffffffffffffffffffffffffffffffffffffffff1673ffffffffffffffffffffffffffffffffffffffff16815260200190815260200160002060008473ffffffffffffffffffffffffffffffffffffffff1673ffffffffffffffffffffffffffffffffffffffff16815260200190815260200160002060006101000a81548160ff0219169083151502179055508173ffffffffffffffffffffffffffffffffffffffff16610d316111ca565b73ffffffffffffffffffffffffffffffffffffffff167f17307eab39ab6107e8899845ad3d59bd9653f200f220920489ca2b5937696c3183604051610d769190612e54565b60405180910390a35050565b610d93610d8d6111ca565b8361128b565b610dd2576040517f08c379a0000000000000000000000000000000000000000000000000000000008152600401610dc9906130d1565b60405180910390fd5b610dde8484848461190f565b50505050565b6060610def8261196b565b9050919050565b60606000610e04600c6115db565b905060008167ffffffffffffffff811115610e48577f4e487b7100000000000000000000000000000000000000000000000000000000600052604160045260246000fd5b604051908082528060200260200182016040528015610e7b57816020015b6060815260200190600190039081610e665790505b5090506000805b83811015610f4e576000600182610e999190613240565b90503373ffffffffffffffffffffffffffffffffffffffff16610ebb826108c9565b73ffffffffffffffffffffffffffffffffffffffff161415610f3a576000610ee282610de4565b905080858581518110610f1e577f4e487b7100000000000000000000000000000000000000000000000000000000600052603260045260246000fd5b6020026020010181905250600184610f369190613240565b9350505b508080610f4690613414565b915050610e82565b5081935050505090565b6000600560008473ffffffffffffffffffffffffffffffffffffffff1673ffffffffffffffffffffffffffffffffffffffff16815260200190815260200160002060008373ffffffffffffffffffffffffffffffffffffffff1673ffffffffffffffffffffffffffffffffffffffff16815260200190815260200160002060009054906101000a900460ff16905092915050565b610ff46111ca565b73ffffffffffffffffffffffffffffffffffffffff16611012610abb565b73ffffffffffffffffffffffffffffffffffffffff1614611068576040517f08c379a000000000000000000000000000000000000000000000000000000000815260040161105f90613051565b60405180910390fd5b600073ffffffffffffffffffffffffffffffffffffffff168173ffffffffffffffffffffffffffffffffffffffff1614156110d8576040517f08c379a00000000000000000000000000000000000000000000000000000000081526004016110cf90612ed1565b60405180910390fd5b6110e18161182b565b50565b60007f780e9d63000000000000000000000000000000000000000000000000000000007bffffffffffffffffffffffffffffffffffffffffffffffffffffffff1916827bffffffffffffffffffffffffffffffffffffffffffffffffffffffff19161480611157575061115682611abd565b5b9050919050565b60008073ffffffffffffffffffffffffffffffffffffffff166002600084815260200190815260200160002060009054906101000a900473ffffffffffffffffffffffffffffffffffffffff1673ffffffffffffffffffffffffffffffffffffffff1614159050919050565b600033905090565b816004600083815260200190815260200160002060006101000a81548173ffffffffffffffffffffffffffffffffffffffff021916908373ffffffffffffffffffffffffffffffffffffffff160217905550808273ffffffffffffffffffffffffffffffffffffffff16611245836108c9565b73ffffffffffffffffffffffffffffffffffffffff167f8c5be1e5ebec7d5bd14f71427d1e84f3dd0314c0f7b2291e5b200ac8c7c3b92560405160405180910390a45050565b60006112968261115e565b6112d5576040517f08c379a00000000000000000000000000000000000000000000000000000000081526004016112cc90612f51565b60405180910390fd5b60006112e0836108c9565b90508073ffffffffffffffffffffffffffffffffffffffff168473ffffffffffffffffffffffffffffffffffffffff16148061134f57508373ffffffffffffffffffffffffffffffffffffffff16611337846104ff565b73ffffffffffffffffffffffffffffffffffffffff16145b80611360575061135f8185610f58565b5b91505092915050565b8273ffffffffffffffffffffffffffffffffffffffff16611389826108c9565b73ffffffffffffffffffffffffffffffffffffffff16146113df576040517f08c379a00000000000000000000000000000000000000000000000000000000081526004016113d690613071565b60405180910390fd5b600073ffffffffffffffffffffffffffffffffffffffff168273ffffffffffffffffffffffffffffffffffffffff16141561144f576040517f08c379a000000000000000000000000000000000000000000000000000000000815260040161144690612f11565b60405180910390fd5b61145a838383611b9f565b6114656000826111d2565b6001600360008573ffffffffffffffffffffffffffffffffffffffff1673ffffffffffffffffffffffffffffffffffffffff16815260200190815260200160002060008282546114b591906132c7565b925050819055506001600360008473ffffffffffffffffffffffffffffffffffffffff1673ffffffffffffffffffffffffffffffffffffffff168152602001908152602001600020600082825461150c9190613240565b92505081905550816002600083815260200190815260200160002060006101000a81548173ffffffffffffffffffffffffffffffffffffffff021916908373ffffffffffffffffffffffffffffffffffffffff160217905550808273ffffffffffffffffffffffffffffffffffffffff168473ffffffffffffffffffffffffffffffffffffffff167fddf252ad1be2c89b69c2b068fc378daa952ba7f163c4a11628f55a4df523b3ef60405160405180910390a4505050565b6001816000016000828254019250508190555050565b600081600001549050919050565b600073ffffffffffffffffffffffffffffffffffffffff168273ffffffffffffffffffffffffffffffffffffffff161415611659576040517f08c379a000000000000000000000000000000000000000000000000000000000815260040161165090612ff1565b60405180910390fd5b6116628161115e565b156116a2576040517f08c379a000000000000000000000000000000000000000000000000000000000815260040161169990612ef1565b60405180910390fd5b6116ae60008383611b9f565b6001600360008473ffffffffffffffffffffffffffffffffffffffff1673ffffffffffffffffffffffffffffffffffffffff16815260200190815260200160002060008282546116fe9190613240565b92505081905550816002600083815260200190815260200160002060006101000a81548173ffffffffffffffffffffffffffffffffffffffff021916908373ffffffffffffffffffffffffffffffffffffffff160217905550808273ffffffffffffffffffffffffffffffffffffffff16600073ffffffffffffffffffffffffffffffffffffffff167fddf252ad1be2c89b69c2b068fc378daa952ba7f163c4a11628f55a4df523b3ef60405160405180910390a45050565b6117c08261115e565b6117ff576040517f08c379a00000000000000000000000000000000000000000000000000000000081526004016117f690612fd1565b60405180910390fd5b80600a6000848152602001908152602001600020908051906020019061182692919061251a565b505050565b6000600b60009054906101000a900473ffffffffffffffffffffffffffffffffffffffff16905081600b60006101000a81548173ffffffffffffffffffffffffffffffffffffffff021916908373ffffffffffffffffffffffffffffffffffffffff1602179055508173ffffffffffffffffffffffffffffffffffffffff168173ffffffffffffffffffffffffffffffffffffffff167f8be0079c531659141344cd1fd0a4f28419497f9722a3daafe3b4186f6b6457e060405160405180910390a35050565b61190b828260405180602001604052806000815250611baf565b5050565b61191a848484611369565b61192684848484611c0a565b611965576040517f08c379a000000000000000000000000000000000000000000000000000000000815260040161195c90612eb1565b60405180910390fd5b50505050565b60606119768261115e565b6119b5576040517f08c379a00000000000000000000000000000000000000000000000000000000081526004016119ac90613011565b60405180910390fd5b6000600a600084815260200190815260200160002080546119d5906133b1565b80601f0160208091040260200160405190810160405280929190818152602001828054611a01906133b1565b8015611a4e5780601f10611a2357610100808354040283529160200191611a4e565b820191906000526020600020905b815481529060010190602001808311611a3157829003601f168201915b505050505090506000611a5f611da1565b9050600081511415611a75578192505050611ab8565b600082511115611aaa578082604051602001611a92929190612da7565b60405160208183030381529060405292505050611ab8565b611ab384611db8565b925050505b919050565b60007f80ac58cd000000000000000000000000000000000000000000000000000000007bffffffffffffffffffffffffffffffffffffffffffffffffffffffff1916827bffffffffffffffffffffffffffffffffffffffffffffffffffffffff19161480611b8857507f5b5e139f000000000000000000000000000000000000000000000000000000007bffffffffffffffffffffffffffffffffffffffffffffffffffffffff1916827bffffffffffffffffffffffffffffffffffffffffffffffffffffffff1916145b80611b985750611b9782611e5f565b5b9050919050565b611baa838383611ec9565b505050565b611bb983836115e9565b611bc66000848484611c0a565b611c05576040517f08c379a0000000000000000000000000000000000000000000000000000000008152600401611bfc90612eb1565b60405180910390fd5b505050565b6000611c2b8473ffffffffffffffffffffffffffffffffffffffff16611fdd565b15611d94578373ffffffffffffffffffffffffffffffffffffffff1663150b7a02611c546111ca565b8786866040518563ffffffff1660e01b8152600401611c769493929190612de6565b602060405180830381600087803b158015611c9057600080fd5b505af1925050508015611cc157506040513d601f19601f82011682018060405250810190611cbe91906128c6565b60015b611d44573d8060008114611cf1576040519150601f19603f3d011682016040523d82523d6000602084013e611cf6565b606091505b50600081511415611d3c576040517f08c379a0000000000000000000000000000000000000000000000000000000008152600401611d3390612eb1565b60405180910390fd5b805181602001fd5b63150b7a0260e01b7bffffffffffffffffffffffffffffffffffffffffffffffffffffffff1916817bffffffffffffffffffffffffffffffffffffffffffffffffffffffff191614915050611d99565b600190505b949350505050565b606060405180602001604052806000815250905090565b6060611dc38261115e565b611e02576040517f08c379a0000000000000000000000000000000000000000000000000000000008152600401611df990613091565b60405180910390fd5b6000611e0c611da1565b90506000815111611e2c5760405180602001604052806000815250611e57565b80611e3684611ff0565b604051602001611e47929190612da7565b6040516020818303038152906040525b915050919050565b60007f01ffc9a7000000000000000000000000000000000000000000000000000000007bffffffffffffffffffffffffffffffffffffffffffffffffffffffff1916827bffffffffffffffffffffffffffffffffffffffffffffffffffffffff1916149050919050565b611ed483838361219d565b600073ffffffffffffffffffffffffffffffffffffffff168373ffffffffffffffffffffffffffffffffffffffff161415611f1757611f12816121a2565b611f56565b8173ffffffffffffffffffffffffffffffffffffffff168373ffffffffffffffffffffffffffffffffffffffff1614611f5557611f5483826121eb565b5b5b600073ffffffffffffffffffffffffffffffffffffffff168273ffffffffffffffffffffffffffffffffffffffff161415611f9957611f9481612358565b611fd8565b8273ffffffffffffffffffffffffffffffffffffffff168273ffffffffffffffffffffffffffffffffffffffff1614611fd757611fd6828261249b565b5b5b505050565b600080823b905060008111915050919050565b60606000821415612038576040518060400160405280600181526020017f30000000000000000000000000000000000000000000000000000000000000008152509050612198565b600082905060005b6000821461206a57808061205390613414565b915050600a826120639190613296565b9150612040565b60008167ffffffffffffffff8111156120ac577f4e487b7100000000000000000000000000000000000000000000000000000000600052604160045260246000fd5b6040519080825280601f01601f1916602001820160405280156120de5781602001600182028036833780820191505090505b5090505b60008514612191576001826120f791906132c7565b9150600a85612106919061345d565b60306121129190613240565b60f81b81838151811061214e577f4e487b7100000000000000000000000000000000000000000000000000000000600052603260045260246000fd5b60200101907effffffffffffffffffffffffffffffffffffffffffffffffffffffffffffff1916908160001a905350600a8561218a9190613296565b94506120e2565b8093505050505b919050565b505050565b6008805490506009600083815260200190815260200160002081905550600881908060018154018082558091505060019003906000526020600020016000909190919091505550565b600060016121f88461097b565b61220291906132c7565b90506000600760008481526020019081526020016000205490508181146122e7576000600660008673ffffffffffffffffffffffffffffffffffffffff1673ffffffffffffffffffffffffffffffffffffffff168152602001908152602001600020600084815260200190815260200160002054905080600660008773ffffffffffffffffffffffffffffffffffffffff1673ffffffffffffffffffffffffffffffffffffffff168152602001908152602001600020600084815260200190815260200160002081905550816007600083815260200190815260200160002081905550505b6007600084815260200190815260200160002060009055600660008573ffffffffffffffffffffffffffffffffffffffff1673ffffffffffffffffffffffffffffffffffffffff16815260200190815260200160002060008381526020019081526020016000206000905550505050565b6000600160088054905061236c91906132c7565b90506000600960008481526020019081526020016000205490506000600883815481106123c2577f4e487b7100000000000000000000000000000000000000000000000000000000600052603260045260246000fd5b90600052602060002001549050806008838154811061240a577f4e487b7100000000000000000000000000000000000000000000000000000000600052603260045260246000fd5b90600052602060002001819055508160096000838152602001908152602001600020819055506009600085815260200190815260200160002060009055600880548061247f577f4e487b7100000000000000000000000000000000000000000000000000000000600052603160045260246000fd5b6001900381819060005260206000200160009055905550505050565b60006124a68361097b565b905081600660008573ffffffffffffffffffffffffffffffffffffffff1673ffffffffffffffffffffffffffffffffffffffff168152602001908152602001600020600083815260200190815260200160002081905550806007600084815260200190815260200160002081905550505050565b828054612526906133b1565b90600052602060002090601f016020900481019282612548576000855561258f565b82601f1061256157805160ff191683800117855561258f565b8280016001018555821561258f579182015b8281111561258e578251825591602001919060010190612573565b5b50905061259c91906125a0565b5090565b5b808211156125b95760008160009055506001016125a1565b5090565b60006125d06125cb84613151565b61312c565b9050828152602081018484840111156125e857600080fd5b6125f384828561336f565b509392505050565b600061260e61260984613182565b61312c565b90508281526020810184848401111561262657600080fd5b61263184828561336f565b509392505050565b60008135905061264881613aef565b92915050565b60008135905061265d81613b06565b92915050565b60008135905061267281613b1d565b92915050565b60008151905061268781613b1d565b92915050565b600082601f83011261269e57600080fd5b81356126ae8482602086016125bd565b91505092915050565b600082601f8301126126c857600080fd5b81356126d88482602086016125fb565b91505092915050565b6000813590506126f081613b34565b92915050565b60006020828403121561270857600080fd5b600061271684828501612639565b91505092915050565b6000806040838503121561273257600080fd5b600061274085828601612639565b925050602061275185828601612639565b9150509250929050565b60008060006060848603121561277057600080fd5b600061277e86828701612639565b935050602061278f86828701612639565b92505060406127a0868287016126e1565b9150509250925092565b600080600080608085870312156127c057600080fd5b60006127ce87828801612639565b94505060206127df87828801612639565b93505060406127f0878288016126e1565b925050606085013567ffffffffffffffff81111561280d57600080fd5b6128198782880161268d565b91505092959194509250565b6000806040838503121561283857600080fd5b600061284685828601612639565b92505060206128578582860161264e565b9150509250929050565b6000806040838503121561287457600080fd5b600061288285828601612639565b9250506020612893858286016126e1565b9150509250929050565b6000602082840312156128af57600080fd5b60006128bd84828501612663565b91505092915050565b6000602082840312156128d857600080fd5b60006128e684828501612678565b91505092915050565b60006020828403121561290157600080fd5b600082013567ffffffffffffffff81111561291b57600080fd5b612927848285016126b7565b91505092915050565b60006020828403121561294257600080fd5b6000612950848285016126e1565b91505092915050565b60006129658383612a39565b905092915050565b612976816132fb565b82525050565b6000612987826131c3565b61299181856131f1565b9350836020820285016129a3856131b3565b8060005b858110156129df57848403895281516129c08582612959565b94506129cb836131e4565b925060208a019950506001810190506129a7565b50829750879550505050505092915050565b6129fa8161330d565b82525050565b6000612a0b826131ce565b612a158185613202565b9350612a2581856020860161337e565b612a2e8161354a565b840191505092915050565b6000612a44826131d9565b612a4e8185613213565b9350612a5e81856020860161337e565b612a678161354a565b840191505092915050565b6000612a7d826131d9565b612a878185613224565b9350612a9781856020860161337e565b612aa08161354a565b840191505092915050565b6000612ab6826131d9565b612ac08185613235565b9350612ad081856020860161337e565b80840191505092915050565b6000612ae9602b83613224565b9150612af48261355b565b604082019050919050565b6000612b0c603283613224565b9150612b17826135aa565b604082019050919050565b6000612b2f602683613224565b9150612b3a826135f9565b604082019050919050565b6000612b52601c83613224565b9150612b5d82613648565b602082019050919050565b6000612b75602483613224565b9150612b8082613671565b604082019050919050565b6000612b98601983613224565b9150612ba3826136c0565b602082019050919050565b6000612bbb602c83613224565b9150612bc6826136e9565b604082019050919050565b6000612bde603883613224565b9150612be982613738565b604082019050919050565b6000612c01602a83613224565b9150612c0c82613787565b604082019050919050565b6000612c24602983613224565b9150612c2f826137d6565b604082019050919050565b6000612c47602e83613224565b9150612c5282613825565b604082019050919050565b6000612c6a602083613224565b9150612c7582613874565b602082019050919050565b6000612c8d603183613224565b9150612c988261389d565b604082019050919050565b6000612cb0602c83613224565b9150612cbb826138ec565b604082019050919050565b6000612cd3602083613224565b9150612cde8261393b565b602082019050919050565b6000612cf6602983613224565b9150612d0182613964565b604082019050919050565b6000612d19602f83613224565b9150612d24826139b3565b604082019050919050565b6000612d3c602183613224565b9150612d4782613a02565b604082019050919050565b6000612d5f603183613224565b9150612d6a82613a51565b604082019050919050565b6000612d82602c83613224565b9150612d8d82613aa0565b604082019050919050565b612da181613365565b82525050565b6000612db38285612aab565b9150612dbf8284612aab565b91508190509392505050565b6000602082019050612de0600083018461296d565b92915050565b6000608082019050612dfb600083018761296d565b612e08602083018661296d565b612e156040830185612d98565b8181036060830152612e278184612a00565b905095945050505050565b60006020820190508181036000830152612e4c818461297c565b905092915050565b6000602082019050612e6960008301846129f1565b92915050565b60006020820190508181036000830152612e898184612a72565b905092915050565b60006020820190508181036000830152612eaa81612adc565b9050919050565b60006020820190508181036000830152612eca81612aff565b9050919050565b60006020820190508181036000830152612eea81612b22565b9050919050565b60006020820190508181036000830152612f0a81612b45565b9050919050565b60006020820190508181036000830152612f2a81612b68565b9050919050565b60006020820190508181036000830152612f4a81612b8b565b9050919050565b60006020820190508181036000830152612f6a81612bae565b9050919050565b60006020820190508181036000830152612f8a81612bd1565b9050919050565b60006020820190508181036000830152612faa81612bf4565b9050919050565b60006020820190508181036000830152612fca81612c17565b9050919050565b60006020820190508181036000830152612fea81612c3a565b9050919050565b6000602082019050818103600083015261300a81612c5d565b9050919050565b6000602082019050818103600083015261302a81612c80565b9050919050565b6000602082019050818103600083015261304a81612ca3565b9050919050565b6000602082019050818103600083015261306a81612cc6565b9050919050565b6000602082019050818103600083015261308a81612ce9565b9050919050565b600060208201905081810360008301526130aa81612d0c565b9050919050565b600060208201905081810360008301526130ca81612d2f565b9050919050565b600060208201905081810360008301526130ea81612d52565b9050919050565b6000602082019050818103600083015261310a81612d75565b9050919050565b60006020820190506131266000830184612d98565b92915050565b6000613136613147565b905061314282826133e3565b919050565b6000604051905090565b600067ffffffffffffffff82111561316c5761316b61351b565b5b6131758261354a565b9050602081019050919050565b600067ffffffffffffffff82111561319d5761319c61351b565b5b6131a68261354a565b9050602081019050919050565b6000819050602082019050919050565b600081519050919050565b600081519050919050565b600081519050919050565b6000602082019050919050565b600082825260208201905092915050565b600082825260208201905092915050565b600082825260208201905092915050565b600082825260208201905092915050565b600081905092915050565b600061324b82613365565b915061325683613365565b9250827fffffffffffffffffffffffffffffffffffffffffffffffffffffffffffffffff0382111561328b5761328a61348e565b5b828201905092915050565b60006132a182613365565b91506132ac83613365565b9250826132bc576132bb6134bd565b5b828204905092915050565b60006132d282613365565b91506132dd83613365565b9250828210156132f0576132ef61348e565b5b828203905092915050565b600061330682613345565b9050919050565b60008115159050919050565b60007fffffffff0000000000000000000000000000000000000000000000000000000082169050919050565b600073ffffffffffffffffffffffffffffffffffffffff82169050919050565b6000819050919050565b82818337600083830152505050565b60005b8381101561339c578082015181840152602081019050613381565b838111156133ab576000848401525b50505050565b600060028204905060018216806133c957607f821691505b602082108114156133dd576133dc6134ec565b5b50919050565b6133ec8261354a565b810181811067ffffffffffffffff8211171561340b5761340a61351b565b5b80604052505050565b600061341f82613365565b91507fffffffffffffffffffffffffffffffffffffffffffffffffffffffffffffffff8214156134525761345161348e565b5b600182019050919050565b600061346882613365565b915061347383613365565b925082613483576134826134bd565b5b828206905092915050565b7f4e487b7100000000000000000000000000000000000000000000000000000000600052601160045260246000fd5b7f4e487b7100000000000000000000000000000000000000000000000000000000600052601260045260246000fd5b7f4e487b7100000000000000000000000000000000000000000000000000000000600052602260045260246000fd5b7f4e487b7100000000000000000000000000000000000000000000000000000000600052604160045260246000fd5b6000601f19601f8301169050919050565b7f455243373231456e756d657261626c653a206f776e657220696e646578206f7560008201527f74206f6620626f756e6473000000000000000000000000000000000000000000602082015250565b7f4552433732313a207472616e7366657220746f206e6f6e20455243373231526560008201527f63656976657220696d706c656d656e7465720000000000000000000000000000602082015250565b7f4f776e61626c653a206e6577206f776e657220697320746865207a65726f206160008201527f6464726573730000000000000000000000000000000000000000000000000000602082015250565b7f4552433732313a20746f6b656e20616c7265616479206d696e74656400000000600082015250565b7f4552433732313a207472616e7366657220746f20746865207a65726f2061646460008201527f7265737300000000000000000000000000000000000000000000000000000000602082015250565b7f4552433732313a20617070726f766520746f2063616c6c657200000000000000600082015250565b7f4552433732313a206f70657261746f7220717565727920666f72206e6f6e657860008201527f697374656e7420746f6b656e0000000000000000000000000000000000000000602082015250565b7f4552433732313a20617070726f76652063616c6c6572206973206e6f74206f7760008201527f6e6572206e6f7220617070726f76656420666f7220616c6c0000000000000000602082015250565b7f4552433732313a2062616c616e636520717565727920666f7220746865207a6560008201527f726f206164647265737300000000000000000000000000000000000000000000602082015250565b7f4552433732313a206f776e657220717565727920666f72206e6f6e657869737460008201527f656e7420746f6b656e0000000000000000000000000000000000000000000000602082015250565b7f45524337323155524953746f726167653a2055524920736574206f66206e6f6e60008201527f6578697374656e7420746f6b656e000000000000000000000000000000000000602082015250565b7f4552433732313a206d696e7420746f20746865207a65726f2061646472657373600082015250565b7f45524337323155524953746f726167653a2055524920717565727920666f722060008201527f6e6f6e6578697374656e7420746f6b656e000000000000000000000000000000602082015250565b7f4552433732313a20617070726f76656420717565727920666f72206e6f6e657860008201527f697374656e7420746f6b656e0000000000000000000000000000000000000000602082015250565b7f4f776e61626c653a2063616c6c6572206973206e6f7420746865206f776e6572600082015250565b7f4552433732313a207472616e73666572206f6620746f6b656e2074686174206960008201527f73206e6f74206f776e0000000000000000000000000000000000000000000000602082015250565b7f4552433732314d657461646174613a2055524920717565727920666f72206e6f60008201527f6e6578697374656e7420746f6b656e0000000000000000000000000000000000602082015250565b7f4552433732313a20617070726f76616c20746f2063757272656e74206f776e6560008201527f7200000000000000000000000000000000000000000000000000000000000000602082015250565b7f4552433732313a207472616e736665722063616c6c6572206973206e6f74206f60008201527f776e6572206e6f7220617070726f766564000000000000000000000000000000602082015250565b7f455243373231456e756d657261626c653a20676c6f62616c20696e646578206f60008201527f7574206f6620626f756e64730000000000000000000000000000000000000000602082015250565b613af8816132fb565b8114613b0357600080fd5b50565b613b0f8161330d565b8114613b1a57600080fd5b50565b613b2681613319565b8114613b3157600080fd5b50565b613b3d81613365565b8114613b4857600080fd5b5056fea264697066735822122018205305aa2f84378dd6fe3de04d342162da787edd82aa937287e0cf7f20de5d64736f6c63430008040033",
  "linkReferences": {},
  "deployedLinkReferences": {}
}