{
  "_format": "hh-sol-artifact-1",
  "contractName": "NFT1155",
  "sourceName": "contracts/NFT1155.sol",
  "abi": [
    {
      "inputs": [],
      "stateMutability": "nonpayable",
      "type": "constructor"
    },
    {
      "anonymous": false,
      "inputs": [
        {
          "indexed": true,
          "internalType": "address",
          "name": "account",
          "type": "address"
        },
        {
          "indexed": true,
          "internalType": "address",
          "name": "operator",
          "type": "address"
        },
        {
          "indexed": false,
          "internalType": "bool",
          "name": "approved",
          "type": "bool"
        }
      ],
      "name": "ApprovalForAll",
      "type": "event"
    },
    {
      "anonymous": false,
      "inputs": [
        {
          "indexed": true,
          "internalType": "address",
          "name": "previousOwner",
          "type": "address"
        },
        {
          "indexed": true,
          "internalType": "address",
          "name": "newOwner",
          "type": "address"
        }
      ],
      "name": "OwnershipTransferred",
      "type": "event"
    },
    {
      "anonymous": false,
      "inputs": [
        {
          "indexed": true,
          "internalType": "address",
          "name": "operator",
          "type": "address"
        },
        {
          "indexed": true,
          "internalType": "address",
          "name": "from",
          "type": "address"
        },
        {
          "indexed": true,
          "internalType": "address",
          "name": "to",
          "type": "address"
        },
        {
          "indexed": false,
          "internalType": "uint256[]",
          "name": "ids",
          "type": "uint256[]"
        },
        {
          "indexed": false,
          "internalType": "uint256[]",
          "name": "values",
          "type": "uint256[]"
        }
      ],
      "name": "TransferBatch",
      "type": "event"
    },
    {
      "anonymous": false,
      "inputs": [
        {
          "indexed": true,
          "internalType": "address",
          "name": "operator",
          "type": "address"
        },
        {
          "indexed": true,
          "internalType": "address",
          "name": "from",
          "type": "address"
        },
        {
          "indexed": true,
          "internalType": "address",
          "name": "to",
          "type": "address"
        },
        {
          "indexed": false,
          "internalType": "uint256",
          "name": "id",
          "type": "uint256"
        },
        {
          "indexed": false,
          "internalType": "uint256",
          "name": "value",
          "type": "uint256"
        }
      ],
      "name": "TransferSingle",
      "type": "event"
    },
    {
      "anonymous": false,
      "inputs": [
        {
          "indexed": false,
          "internalType": "string",
          "name": "value",
          "type": "string"
        },
        {
          "indexed": true,
          "internalType": "uint256",
          "name": "id",
          "type": "uint256"
        }
      ],
      "name": "URI",
      "type": "event"
    },
    {
      "inputs": [
        {
          "internalType": "address",
          "name": "account",
          "type": "address"
        },
        {
          "internalType": "uint256",
          "name": "id",
          "type": "uint256"
        }
      ],
      "name": "balanceOf",
      "outputs": [
        {
          "internalType": "uint256",
          "name": "",
          "type": "uint256"
        }
      ],
      "stateMutability": "view",
      "type": "function"
    },
    {
      "inputs": [
        {
          "internalType": "address[]",
          "name": "accounts",
          "type": "address[]"
        },
        {
          "internalType": "uint256[]",
          "name": "ids",
          "type": "uint256[]"
        }
      ],
      "name": "balanceOfBatch",
      "outputs": [
        {
          "internalType": "uint256[]",
          "name": "",
          "type": "uint256[]"
        }
      ],
      "stateMutability": "view",
      "type": "function"
    },
    {
      "inputs": [
        {
          "internalType": "address",
          "name": "account",
          "type": "address"
        },
        {
          "internalType": "uint256",
          "name": "tokenId",
          "type": "uint256"
        },
        {
          "internalType": "uint256",
          "name": "amount",
          "type": "uint256"
        }
      ],
      "name": "burnToken",
      "outputs": [],
      "stateMutability": "nonpayable",
      "type": "function"
    },
    {
      "inputs": [
        {
          "internalType": "address",
          "name": "account",
          "type": "address"
        },
        {
          "internalType": "uint256",
          "name": "tokenId",
          "type": "uint256"
        },
        {
          "internalType": "uint256",
          "name": "amount",
          "type": "uint256"
        }
      ],
      "name": "createToken",
      "outputs": [],
      "stateMutability": "nonpayable",
      "type": "function"
    },
    {
      "inputs": [
        {
          "internalType": "address",
          "name": "account",
          "type": "address"
        },
        {
          "internalType": "address",
          "name": "operator",
          "type": "address"
        }
      ],
      "name": "isApprovedForAll",
      "outputs": [
        {
          "internalType": "bool",
          "name": "",
          "type": "bool"
        }
      ],
      "stateMutability": "view",
      "type": "function"
    },
    {
      "inputs": [],
      "name": "owner",
      "outputs": [
        {
          "internalType": "address",
          "name": "",
          "type": "address"
        }
      ],
      "stateMutability": "view",
      "type": "function"
    },
    {
      "inputs": [],
      "name": "renounceOwnership",
      "outputs": [],
      "stateMutability": "nonpayable",
      "type": "function"
    },
    {
      "inputs": [
        {
          "internalType": "address",
          "name": "from",
          "type": "address"
        },
        {
          "internalType": "address",
          "name": "to",
          "type": "address"
        },
        {
          "internalType": "uint256[]",
          "name": "ids",
          "type": "uint256[]"
        },
        {
          "internalType": "uint256[]",
          "name": "amounts",
          "type": "uint256[]"
        },
        {
          "internalType": "bytes",
          "name": "data",
          "type": "bytes"
        }
      ],
      "name": "safeBatchTransferFrom",
      "outputs": [],
      "stateMutability": "nonpayable",
      "type": "function"
    },
    {
      "inputs": [
        {
          "internalType": "address",
          "name": "from",
          "type": "address"
        },
        {
          "internalType": "address",
          "name": "to",
          "type": "address"
        },
        {
          "internalType": "uint256",
          "name": "id",
          "type": "uint256"
        },
        {
          "internalType": "uint256",
          "name": "amount",
          "type": "uint256"
        },
        {
          "internalType": "bytes",
          "name": "data",
          "type": "bytes"
        }
      ],
      "name": "safeTransferFrom",
      "outputs": [],
      "stateMutability": "nonpayable",
      "type": "function"
    },
    {
      "inputs": [
        {
          "internalType": "address",
          "name": "operator",
          "type": "address"
        },
        {
          "internalType": "bool",
          "name": "approved",
          "type": "bool"
        }
      ],
      "name": "setApprovalForAll",
      "outputs": [],
      "stateMutability": "nonpayable",
      "type": "function"
    },
    {
      "inputs": [
        {
          "internalType": "bytes4",
          "name": "interfaceId",
          "type": "bytes4"
        }
      ],
      "name": "supportsInterface",
      "outputs": [
        {
          "internalType": "bool",
          "name": "",
          "type": "bool"
        }
      ],
      "stateMutability": "view",
      "type": "function"
    },
    {
      "inputs": [
        {
          "internalType": "address",
          "name": "newOwner",
          "type": "address"
        }
      ],
      "name": "transferOwnership",
      "outputs": [],
      "stateMutability": "nonpayable",
      "type": "function"
    },
    {
      "inputs": [
        {
          "internalType": "uint256",
          "name": "",
          "type": "uint256"
        }
      ],
      "name": "uri",
      "outputs": [
        {
          "internalType": "string",
          "name": "",
          "type": "string"
        }
      ],
      "stateMutability": "view",
      "type": "function"
    }
  ],
  "bytecode": "0x60806040523480156200001157600080fd5b506040518060200160405280600081525062000033816200007f60201b60201c565b5062000054620000486200009b60201b60201c565b620000a360201b60201c565b620000793360006001604051806020016040528060008152506200016960201b60201c565b62000d67565b8060029080519060200190620000979291906200061c565b5050565b600033905090565b6000600360009054906101000a900473ffffffffffffffffffffffffffffffffffffffff16905081600360006101000a81548173ffffffffffffffffffffffffffffffffffffffff021916908373ffffffffffffffffffffffffffffffffffffffff1602179055508173ffffffffffffffffffffffffffffffffffffffff168173ffffffffffffffffffffffffffffffffffffffff167f8be0079c531659141344cd1fd0a4f28419497f9722a3daafe3b4186f6b6457e060405160405180910390a35050565b600073ffffffffffffffffffffffffffffffffffffffff168473ffffffffffffffffffffffffffffffffffffffff161415620001dc576040517f08c379a0000000000000000000000000000000000000000000000000000000008152600401620001d390620008f4565b60405180910390fd5b6000620001ee6200009b60201b60201c565b9050620002278160008762000209886200032e60201b60201c565b6200021a886200032e60201b60201c565b87620003f760201b60201c565b8260008086815260200190815260200160002060008773ffffffffffffffffffffffffffffffffffffffff1673ffffffffffffffffffffffffffffffffffffffff168152602001908152602001600020600082825462000288919062000985565b925050819055508473ffffffffffffffffffffffffffffffffffffffff16600073ffffffffffffffffffffffffffffffffffffffff168273ffffffffffffffffffffffffffffffffffffffff167fc3d58168c5ae7397731d063d5bbf3d657854427343f4c083240f7aacaa2d0f6287876040516200030892919062000916565b60405180910390a46200032781600087878787620003ff60201b60201c565b5050505050565b60606000600167ffffffffffffffff81111562000374577f4e487b7100000000000000000000000000000000000000000000000000000000600052604160045260246000fd5b604051908082528060200260200182016040528015620003a35781602001602082028036833780820191505090505b5090508281600081518110620003e2577f4e487b7100000000000000000000000000000000000000000000000000000000600052603260045260246000fd5b60200260200101818152505080915050919050565b505050505050565b6200042b8473ffffffffffffffffffffffffffffffffffffffff166200060960201b62000c681760201c565b1562000601578373ffffffffffffffffffffffffffffffffffffffff1663f23a6e6187878686866040518663ffffffff1660e01b81526004016200047495949392919062000828565b602060405180830381600087803b1580156200048f57600080fd5b505af1925050508015620004c357506040513d601f19601f82011682018060405250810190620004c09190620006e3565b60015b6200057557620004d262000b7b565b806308c379a01415620005365750620004ea62000cab565b80620004f7575062000538565b806040517f08c379a00000000000000000000000000000000000000000000000000000000081526004016200052d91906200088c565b60405180910390fd5b505b6040517f08c379a00000000000000000000000000000000000000000000000000000000081526004016200056c90620008b0565b60405180910390fd5b63f23a6e6160e01b7bffffffffffffffffffffffffffffffffffffffffffffffffffffffff1916817bffffffffffffffffffffffffffffffffffffffffffffffffffffffff191614620005ff576040517f08c379a0000000000000000000000000000000000000000000000000000000008152600401620005f690620008d2565b60405180910390fd5b505b505050505050565b600080823b905060008111915050919050565b8280546200062a9062000a82565b90600052602060002090601f0160209004810192826200064e57600085556200069a565b82601f106200066957805160ff19168380011785556200069a565b828001600101855582156200069a579182015b82811115620006995782518255916020019190600101906200067c565b5b509050620006a99190620006ad565b5090565b5b80821115620006c8576000816000905550600101620006ae565b5090565b600081519050620006dd8162000d4d565b92915050565b600060208284031215620006f657600080fd5b60006200070684828501620006cc565b91505092915050565b6200071a81620009e2565b82525050565b60006200072d826200094d565b62000739818562000963565b93506200074b81856020860162000a4c565b620007568162000ba0565b840191505092915050565b60006200076e8262000958565b6200077a818562000974565b93506200078c81856020860162000a4c565b620007978162000ba0565b840191505092915050565b6000620007b160348362000974565b9150620007be8262000bbe565b604082019050919050565b6000620007d860288362000974565b9150620007e58262000c0d565b604082019050919050565b6000620007ff60218362000974565b91506200080c8262000c5c565b604082019050919050565b620008228162000a42565b82525050565b600060a0820190506200083f60008301886200070f565b6200084e60208301876200070f565b6200085d604083018662000817565b6200086c606083018562000817565b818103608083015262000880818462000720565b90509695505050505050565b60006020820190508181036000830152620008a8818462000761565b905092915050565b60006020820190508181036000830152620008cb81620007a2565b9050919050565b60006020820190508181036000830152620008ed81620007c9565b9050919050565b600060208201905081810360008301526200090f81620007f0565b9050919050565b60006040820190506200092d600083018562000817565b6200093c602083018462000817565b9392505050565b6000604051905090565b600081519050919050565b600081519050919050565b600082825260208201905092915050565b600082825260208201905092915050565b6000620009928262000a42565b91506200099f8362000a42565b9250827fffffffffffffffffffffffffffffffffffffffffffffffffffffffffffffffff03821115620009d757620009d662000aee565b5b828201905092915050565b6000620009ef8262000a22565b9050919050565b60007fffffffff0000000000000000000000000000000000000000000000000000000082169050919050565b600073ffffffffffffffffffffffffffffffffffffffff82169050919050565b6000819050919050565b60005b8381101562000a6c57808201518184015260208101905062000a4f565b8381111562000a7c576000848401525b50505050565b6000600282049050600182168062000a9b57607f821691505b6020821081141562000ab25762000ab162000b1d565b5b50919050565b62000ac38262000ba0565b810181811067ffffffffffffffff8211171562000ae55762000ae462000b4c565b5b80604052505050565b7f4e487b7100000000000000000000000000000000000000000000000000000000600052601160045260246000fd5b7f4e487b7100000000000000000000000000000000000000000000000000000000600052602260045260246000fd5b7f4e487b7100000000000000000000000000000000000000000000000000000000600052604160045260246000fd5b600060033d111562000b9d5760046000803e62000b9a60005162000bb1565b90505b90565b6000601f19601f8301169050919050565b60008160e01c9050919050565b7f455243313135353a207472616e7366657220746f206e6f6e204552433131353560008201527f526563656976657220696d706c656d656e746572000000000000000000000000602082015250565b7f455243313135353a204552433131353552656365697665722072656a6563746560008201527f6420746f6b656e73000000000000000000000000000000000000000000000000602082015250565b7f455243313135353a206d696e7420746f20746865207a65726f2061646472657360008201527f7300000000000000000000000000000000000000000000000000000000000000602082015250565b600060443d101562000cbd5762000d4a565b62000cc762000943565b60043d036004823e80513d602482011167ffffffffffffffff8211171562000cf157505062000d4a565b808201805167ffffffffffffffff81111562000d11575050505062000d4a565b80602083010160043d03850181111562000d3057505050505062000d4a565b62000d418260200185018662000ab8565b82955050505050505b90565b62000d5881620009f6565b811462000d6457600080fd5b50565b6131518062000d776000396000f3fe608060405234801561001057600080fd5b50600436106100ce5760003560e01c80638da5cb5b1161008c578063e985e9c511610066578063e985e9c51461020f578063ed8c59381461023f578063f242432a1461025b578063f2fde38b14610277576100ce565b80638da5cb5b146101b9578063a22cb465146101d7578063dbdcebde146101f3576100ce565b8062fdd58e146100d357806301ffc9a7146101035780630e89341c146101335780632eb2c2d6146101635780634e1273f41461017f578063715018a6146101af575b600080fd5b6100ed60048036038101906100e89190611fd0565b610293565b6040516100fa91906127c6565b60405180910390f35b61011d600480360381019061011891906120c7565b61035c565b60405161012a91906125a9565b60405180910390f35b61014d60048036038101906101489190612119565b61043e565b60405161015a91906125c4565b60405180910390f35b61017d60048036038101906101789190611e46565b6104d2565b005b6101996004803603810190610194919061205b565b610573565b6040516101a69190612550565b60405180910390f35b6101b7610724565b005b6101c16107ac565b6040516101ce9190612473565b60405180910390f35b6101f160048036038101906101ec9190611f94565b6107d6565b005b61020d6004803603810190610208919061200c565b610957565b005b61022960048036038101906102249190611e0a565b6109f3565b60405161023691906125a9565b60405180910390f35b6102596004803603810190610254919061200c565b610a87565b005b61027560048036038101906102709190611f05565b610acf565b005b610291600480360381019061028c9190611de1565b610b70565b005b60008073ffffffffffffffffffffffffffffffffffffffff168373ffffffffffffffffffffffffffffffffffffffff161415610304576040517f08c379a00000000000000000000000000000000000000000000000000000000081526004016102fb90612626565b60405180910390fd5b60008083815260200190815260200160002060008473ffffffffffffffffffffffffffffffffffffffff1673ffffffffffffffffffffffffffffffffffffffff16815260200190815260200160002054905092915050565b60007fd9b67a26000000000000000000000000000000000000000000000000000000007bffffffffffffffffffffffffffffffffffffffffffffffffffffffff1916827bffffffffffffffffffffffffffffffffffffffffffffffffffffffff1916148061042757507f0e89341c000000000000000000000000000000000000000000000000000000007bffffffffffffffffffffffffffffffffffffffffffffffffffffffff1916827bffffffffffffffffffffffffffffffffffffffffffffffffffffffff1916145b80610437575061043682610c7b565b5b9050919050565b60606002805461044d90612a35565b80601f016020809104026020016040519081016040528092919081815260200182805461047990612a35565b80156104c65780601f1061049b576101008083540402835291602001916104c6565b820191906000526020600020905b8154815290600101906020018083116104a957829003601f168201915b50505050509050919050565b6104da610ce5565b73ffffffffffffffffffffffffffffffffffffffff168573ffffffffffffffffffffffffffffffffffffffff161480610520575061051f8561051a610ce5565b6109f3565b5b61055f576040517f08c379a0000000000000000000000000000000000000000000000000000000008152600401610556906126c6565b60405180910390fd5b61056c8585858585610ced565b5050505050565b606081518351146105b9576040517f08c379a00000000000000000000000000000000000000000000000000000000081526004016105b090612766565b60405180910390fd5b6000835167ffffffffffffffff8111156105fc577f4e487b7100000000000000000000000000000000000000000000000000000000600052604160045260246000fd5b60405190808252806020026020018201604052801561062a5781602001602082028036833780820191505090505b50905060005b8451811015610719576106c3858281518110610675577f4e487b7100000000000000000000000000000000000000000000000000000000600052603260045260246000fd5b60200260200101518583815181106106b6577f4e487b7100000000000000000000000000000000000000000000000000000000600052603260045260246000fd5b6020026020010151610293565b8282815181106106fc577f4e487b7100000000000000000000000000000000000000000000000000000000600052603260045260246000fd5b6020026020010181815250508061071290612a98565b9050610630565b508091505092915050565b61072c610ce5565b73ffffffffffffffffffffffffffffffffffffffff1661074a6107ac565b73ffffffffffffffffffffffffffffffffffffffff16146107a0576040517f08c379a000000000000000000000000000000000000000000000000000000000815260040161079790612726565b60405180910390fd5b6107aa600061104d565b565b6000600360009054906101000a900473ffffffffffffffffffffffffffffffffffffffff16905090565b8173ffffffffffffffffffffffffffffffffffffffff166107f5610ce5565b73ffffffffffffffffffffffffffffffffffffffff16141561084c576040517f08c379a000000000000000000000000000000000000000000000000000000000815260040161084390612746565b60405180910390fd5b8060016000610859610ce5565b73ffffffffffffffffffffffffffffffffffffffff1673ffffffffffffffffffffffffffffffffffffffff16815260200190815260200160002060008473ffffffffffffffffffffffffffffffffffffffff1673ffffffffffffffffffffffffffffffffffffffff16815260200190815260200160002060006101000a81548160ff0219169083151502179055508173ffffffffffffffffffffffffffffffffffffffff16610906610ce5565b73ffffffffffffffffffffffffffffffffffffffff167f17307eab39ab6107e8899845ad3d59bd9653f200f220920489ca2b5937696c318360405161094b91906125a9565b60405180910390a35050565b61095f610ce5565b73ffffffffffffffffffffffffffffffffffffffff1661097d6107ac565b73ffffffffffffffffffffffffffffffffffffffff16146109d3576040517f08c379a00000000000000000000000000000000000000000000000000000000081526004016109ca90612726565b60405180910390fd5b6109ee83838360405180602001604052806000815250611113565b505050565b6000600160008473ffffffffffffffffffffffffffffffffffffffff1673ffffffffffffffffffffffffffffffffffffffff16815260200190815260200160002060008373ffffffffffffffffffffffffffffffffffffffff1673ffffffffffffffffffffffffffffffffffffffff16815260200190815260200160002060009054906101000a900460ff16905092915050565b8273ffffffffffffffffffffffffffffffffffffffff163373ffffffffffffffffffffffffffffffffffffffff1614610abf57600080fd5b610aca8383836112a9565b505050565b610ad7610ce5565b73ffffffffffffffffffffffffffffffffffffffff168573ffffffffffffffffffffffffffffffffffffffff161480610b1d5750610b1c85610b17610ce5565b6109f3565b5b610b5c576040517f08c379a0000000000000000000000000000000000000000000000000000000008152600401610b5390612686565b60405180910390fd5b610b6985858585856114c6565b5050505050565b610b78610ce5565b73ffffffffffffffffffffffffffffffffffffffff16610b966107ac565b73ffffffffffffffffffffffffffffffffffffffff1614610bec576040517f08c379a0000000000000000000000000000000000000000000000000000000008152600401610be390612726565b60405180910390fd5b600073ffffffffffffffffffffffffffffffffffffffff168173ffffffffffffffffffffffffffffffffffffffff161415610c5c576040517f08c379a0000000000000000000000000000000000000000000000000000000008152600401610c5390612646565b60405180910390fd5b610c658161104d565b50565b600080823b905060008111915050919050565b60007f01ffc9a7000000000000000000000000000000000000000000000000000000007bffffffffffffffffffffffffffffffffffffffffffffffffffffffff1916827bffffffffffffffffffffffffffffffffffffffffffffffffffffffff1916149050919050565b600033905090565b8151835114610d31576040517f08c379a0000000000000000000000000000000000000000000000000000000008152600401610d2890612786565b60405180910390fd5b600073ffffffffffffffffffffffffffffffffffffffff168473ffffffffffffffffffffffffffffffffffffffff161415610da1576040517f08c379a0000000000000000000000000000000000000000000000000000000008152600401610d98906126a6565b60405180910390fd5b6000610dab610ce5565b9050610dbb818787878787611748565b60005b8451811015610fb8576000858281518110610e02577f4e487b7100000000000000000000000000000000000000000000000000000000600052603260045260246000fd5b602002602001015190506000858381518110610e47577f4e487b7100000000000000000000000000000000000000000000000000000000600052603260045260246000fd5b60200260200101519050600080600084815260200190815260200160002060008b73ffffffffffffffffffffffffffffffffffffffff1673ffffffffffffffffffffffffffffffffffffffff16815260200190815260200160002054905081811015610ee8576040517f08c379a0000000000000000000000000000000000000000000000000000000008152600401610edf90612706565b60405180910390fd5b81810360008085815260200190815260200160002060008c73ffffffffffffffffffffffffffffffffffffffff1673ffffffffffffffffffffffffffffffffffffffff168152602001908152602001600020819055508160008085815260200190815260200160002060008b73ffffffffffffffffffffffffffffffffffffffff1673ffffffffffffffffffffffffffffffffffffffff1681526020019081526020016000206000828254610f9d9190612929565b9250508190555050505080610fb190612a98565b9050610dbe565b508473ffffffffffffffffffffffffffffffffffffffff168673ffffffffffffffffffffffffffffffffffffffff168273ffffffffffffffffffffffffffffffffffffffff167f4a39dc06d4c0dbc64b70af90fd698a233a518aa5d07e595d983b8c0526c8f7fb878760405161102f929190612572565b60405180910390a4611045818787878787611750565b505050505050565b6000600360009054906101000a900473ffffffffffffffffffffffffffffffffffffffff16905081600360006101000a81548173ffffffffffffffffffffffffffffffffffffffff021916908373ffffffffffffffffffffffffffffffffffffffff1602179055508173ffffffffffffffffffffffffffffffffffffffff168173ffffffffffffffffffffffffffffffffffffffff167f8be0079c531659141344cd1fd0a4f28419497f9722a3daafe3b4186f6b6457e060405160405180910390a35050565b600073ffffffffffffffffffffffffffffffffffffffff168473ffffffffffffffffffffffffffffffffffffffff161415611183576040517f08c379a000000000000000000000000000000000000000000000000000000000815260040161117a906127a6565b60405180910390fd5b600061118d610ce5565b90506111ae8160008761119f88611937565b6111a888611937565b87611748565b8260008086815260200190815260200160002060008773ffffffffffffffffffffffffffffffffffffffff1673ffffffffffffffffffffffffffffffffffffffff168152602001908152602001600020600082825461120d9190612929565b925050819055508473ffffffffffffffffffffffffffffffffffffffff16600073ffffffffffffffffffffffffffffffffffffffff168273ffffffffffffffffffffffffffffffffffffffff167fc3d58168c5ae7397731d063d5bbf3d657854427343f4c083240f7aacaa2d0f62878760405161128b9291906127e1565b60405180910390a46112a2816000878787876119fd565b5050505050565b600073ffffffffffffffffffffffffffffffffffffffff168373ffffffffffffffffffffffffffffffffffffffff161415611319576040517f08c379a0000000000000000000000000000000000000000000000000000000008152600401611310906126e6565b60405180910390fd5b6000611323610ce5565b90506113538185600061133587611937565b61133e87611937565b60405180602001604052806000815250611748565b600080600085815260200190815260200160002060008673ffffffffffffffffffffffffffffffffffffffff1673ffffffffffffffffffffffffffffffffffffffff168152602001908152602001600020549050828110156113ea576040517f08c379a00000000000000000000000000000000000000000000000000000000081526004016113e190612666565b60405180910390fd5b82810360008086815260200190815260200160002060008773ffffffffffffffffffffffffffffffffffffffff1673ffffffffffffffffffffffffffffffffffffffff16815260200190815260200160002081905550600073ffffffffffffffffffffffffffffffffffffffff168573ffffffffffffffffffffffffffffffffffffffff168373ffffffffffffffffffffffffffffffffffffffff167fc3d58168c5ae7397731d063d5bbf3d657854427343f4c083240f7aacaa2d0f6287876040516114b79291906127e1565b60405180910390a45050505050565b600073ffffffffffffffffffffffffffffffffffffffff168473ffffffffffffffffffffffffffffffffffffffff161415611536576040517f08c379a000000000000000000000000000000000000000000000000000000000815260040161152d906126a6565b60405180910390fd5b6000611540610ce5565b905061156081878761155188611937565b61155a88611937565b87611748565b600080600086815260200190815260200160002060008873ffffffffffffffffffffffffffffffffffffffff1673ffffffffffffffffffffffffffffffffffffffff168152602001908152602001600020549050838110156115f7576040517f08c379a00000000000000000000000000000000000000000000000000000000081526004016115ee90612706565b60405180910390fd5b83810360008087815260200190815260200160002060008973ffffffffffffffffffffffffffffffffffffffff1673ffffffffffffffffffffffffffffffffffffffff168152602001908152602001600020819055508360008087815260200190815260200160002060008873ffffffffffffffffffffffffffffffffffffffff1673ffffffffffffffffffffffffffffffffffffffff16815260200190815260200160002060008282546116ac9190612929565b925050819055508573ffffffffffffffffffffffffffffffffffffffff168773ffffffffffffffffffffffffffffffffffffffff168373ffffffffffffffffffffffffffffffffffffffff167fc3d58168c5ae7397731d063d5bbf3d657854427343f4c083240f7aacaa2d0f6288886040516117299291906127e1565b60405180910390a461173f8288888888886119fd565b50505050505050565b505050505050565b61176f8473ffffffffffffffffffffffffffffffffffffffff16610c68565b1561192f578373ffffffffffffffffffffffffffffffffffffffff1663bc197c8187878686866040518663ffffffff1660e01b81526004016117b595949392919061248e565b602060405180830381600087803b1580156117cf57600080fd5b505af192505050801561180057506040513d601f19601f820116820180604052508101906117fd91906120f0565b60015b6118a65761180c612b6e565b806308c379a014156118695750611821613029565b8061182c575061186b565b806040517f08c379a000000000000000000000000000000000000000000000000000000000815260040161186091906125c4565b60405180910390fd5b505b6040517f08c379a000000000000000000000000000000000000000000000000000000000815260040161189d906125e6565b60405180910390fd5b63bc197c8160e01b7bffffffffffffffffffffffffffffffffffffffffffffffffffffffff1916817bffffffffffffffffffffffffffffffffffffffffffffffffffffffff19161461192d576040517f08c379a000000000000000000000000000000000000000000000000000000000815260040161192490612606565b60405180910390fd5b505b505050505050565b60606000600167ffffffffffffffff81111561197c577f4e487b7100000000000000000000000000000000000000000000000000000000600052604160045260246000fd5b6040519080825280602002602001820160405280156119aa5781602001602082028036833780820191505090505b50905082816000815181106119e8577f4e487b7100000000000000000000000000000000000000000000000000000000600052603260045260246000fd5b60200260200101818152505080915050919050565b611a1c8473ffffffffffffffffffffffffffffffffffffffff16610c68565b15611bdc578373ffffffffffffffffffffffffffffffffffffffff1663f23a6e6187878686866040518663ffffffff1660e01b8152600401611a629594939291906124f6565b602060405180830381600087803b158015611a7c57600080fd5b505af1925050508015611aad57506040513d601f19601f82011682018060405250810190611aaa91906120f0565b60015b611b5357611ab9612b6e565b806308c379a01415611b165750611ace613029565b80611ad95750611b18565b806040517f08c379a0000000000000000000000000000000000000000000000000000000008152600401611b0d91906125c4565b60405180910390fd5b505b6040517f08c379a0000000000000000000000000000000000000000000000000000000008152600401611b4a906125e6565b60405180910390fd5b63f23a6e6160e01b7bffffffffffffffffffffffffffffffffffffffffffffffffffffffff1916817bffffffffffffffffffffffffffffffffffffffffffffffffffffffff191614611bda576040517f08c379a0000000000000000000000000000000000000000000000000000000008152600401611bd190612606565b60405180910390fd5b505b505050505050565b6000611bf7611bf28461282f565b61280a565b90508083825260208201905082856020860282011115611c1657600080fd5b60005b85811015611c465781611c2c8882611cfa565b845260208401935060208301925050600181019050611c19565b5050509392505050565b6000611c63611c5e8461285b565b61280a565b90508083825260208201905082856020860282011115611c8257600080fd5b60005b85811015611cb25781611c988882611dcc565b845260208401935060208301925050600181019050611c85565b5050509392505050565b6000611ccf611cca84612887565b61280a565b905082815260208101848484011115611ce757600080fd5b611cf28482856129f3565b509392505050565b600081359050611d09816130bf565b92915050565b600082601f830112611d2057600080fd5b8135611d30848260208601611be4565b91505092915050565b600082601f830112611d4a57600080fd5b8135611d5a848260208601611c50565b91505092915050565b600081359050611d72816130d6565b92915050565b600081359050611d87816130ed565b92915050565b600081519050611d9c816130ed565b92915050565b600082601f830112611db357600080fd5b8135611dc3848260208601611cbc565b91505092915050565b600081359050611ddb81613104565b92915050565b600060208284031215611df357600080fd5b6000611e0184828501611cfa565b91505092915050565b60008060408385031215611e1d57600080fd5b6000611e2b85828601611cfa565b9250506020611e3c85828601611cfa565b9150509250929050565b600080600080600060a08688031215611e5e57600080fd5b6000611e6c88828901611cfa565b9550506020611e7d88828901611cfa565b945050604086013567ffffffffffffffff811115611e9a57600080fd5b611ea688828901611d39565b935050606086013567ffffffffffffffff811115611ec357600080fd5b611ecf88828901611d39565b925050608086013567ffffffffffffffff811115611eec57600080fd5b611ef888828901611da2565b9150509295509295909350565b600080600080600060a08688031215611f1d57600080fd5b6000611f2b88828901611cfa565b9550506020611f3c88828901611cfa565b9450506040611f4d88828901611dcc565b9350506060611f5e88828901611dcc565b925050608086013567ffffffffffffffff811115611f7b57600080fd5b611f8788828901611da2565b9150509295509295909350565b60008060408385031215611fa757600080fd5b6000611fb585828601611cfa565b9250506020611fc685828601611d63565b9150509250929050565b60008060408385031215611fe357600080fd5b6000611ff185828601611cfa565b925050602061200285828601611dcc565b9150509250929050565b60008060006060848603121561202157600080fd5b600061202f86828701611cfa565b935050602061204086828701611dcc565b925050604061205186828701611dcc565b9150509250925092565b6000806040838503121561206e57600080fd5b600083013567ffffffffffffffff81111561208857600080fd5b61209485828601611d0f565b925050602083013567ffffffffffffffff8111156120b157600080fd5b6120bd85828601611d39565b9150509250929050565b6000602082840312156120d957600080fd5b60006120e784828501611d78565b91505092915050565b60006020828403121561210257600080fd5b600061211084828501611d8d565b91505092915050565b60006020828403121561212b57600080fd5b600061213984828501611dcc565b91505092915050565b600061214e8383612455565b60208301905092915050565b6121638161297f565b82525050565b6000612174826128c8565b61217e81856128f6565b9350612189836128b8565b8060005b838110156121ba5781516121a18882612142565b97506121ac836128e9565b92505060018101905061218d565b5085935050505092915050565b6121d081612991565b82525050565b60006121e1826128d3565b6121eb8185612907565b93506121fb818560208601612a02565b61220481612b90565b840191505092915050565b600061221a826128de565b6122248185612918565b9350612234818560208601612a02565b61223d81612b90565b840191505092915050565b6000612255603483612918565b915061226082612bae565b604082019050919050565b6000612278602883612918565b915061228382612bfd565b604082019050919050565b600061229b602b83612918565b91506122a682612c4c565b604082019050919050565b60006122be602683612918565b91506122c982612c9b565b604082019050919050565b60006122e1602483612918565b91506122ec82612cea565b604082019050919050565b6000612304602983612918565b915061230f82612d39565b604082019050919050565b6000612327602583612918565b915061233282612d88565b604082019050919050565b600061234a603283612918565b915061235582612dd7565b604082019050919050565b600061236d602383612918565b915061237882612e26565b604082019050919050565b6000612390602a83612918565b915061239b82612e75565b604082019050919050565b60006123b3602083612918565b91506123be82612ec4565b602082019050919050565b60006123d6602983612918565b91506123e182612eed565b604082019050919050565b60006123f9602983612918565b915061240482612f3c565b604082019050919050565b600061241c602883612918565b915061242782612f8b565b604082019050919050565b600061243f602183612918565b915061244a82612fda565b604082019050919050565b61245e816129e9565b82525050565b61246d816129e9565b82525050565b6000602082019050612488600083018461215a565b92915050565b600060a0820190506124a3600083018861215a565b6124b0602083018761215a565b81810360408301526124c28186612169565b905081810360608301526124d68185612169565b905081810360808301526124ea81846121d6565b90509695505050505050565b600060a08201905061250b600083018861215a565b612518602083018761215a565b6125256040830186612464565b6125326060830185612464565b818103608083015261254481846121d6565b90509695505050505050565b6000602082019050818103600083015261256a8184612169565b905092915050565b6000604082019050818103600083015261258c8185612169565b905081810360208301526125a08184612169565b90509392505050565b60006020820190506125be60008301846121c7565b92915050565b600060208201905081810360008301526125de818461220f565b905092915050565b600060208201905081810360008301526125ff81612248565b9050919050565b6000602082019050818103600083015261261f8161226b565b9050919050565b6000602082019050818103600083015261263f8161228e565b9050919050565b6000602082019050818103600083015261265f816122b1565b9050919050565b6000602082019050818103600083015261267f816122d4565b9050919050565b6000602082019050818103600083015261269f816122f7565b9050919050565b600060208201905081810360008301526126bf8161231a565b9050919050565b600060208201905081810360008301526126df8161233d565b9050919050565b600060208201905081810360008301526126ff81612360565b9050919050565b6000602082019050818103600083015261271f81612383565b9050919050565b6000602082019050818103600083015261273f816123a6565b9050919050565b6000602082019050818103600083015261275f816123c9565b9050919050565b6000602082019050818103600083015261277f816123ec565b9050919050565b6000602082019050818103600083015261279f8161240f565b9050919050565b600060208201905081810360008301526127bf81612432565b9050919050565b60006020820190506127db6000830184612464565b92915050565b60006040820190506127f66000830185612464565b6128036020830184612464565b9392505050565b6000612814612825565b90506128208282612a67565b919050565b6000604051905090565b600067ffffffffffffffff82111561284a57612849612b3f565b5b602082029050602081019050919050565b600067ffffffffffffffff82111561287657612875612b3f565b5b602082029050602081019050919050565b600067ffffffffffffffff8211156128a2576128a1612b3f565b5b6128ab82612b90565b9050602081019050919050565b6000819050602082019050919050565b600081519050919050565b600081519050919050565b600081519050919050565b6000602082019050919050565b600082825260208201905092915050565b600082825260208201905092915050565b600082825260208201905092915050565b6000612934826129e9565b915061293f836129e9565b9250827fffffffffffffffffffffffffffffffffffffffffffffffffffffffffffffffff0382111561297457612973612ae1565b5b828201905092915050565b600061298a826129c9565b9050919050565b60008115159050919050565b60007fffffffff0000000000000000000000000000000000000000000000000000000082169050919050565b600073ffffffffffffffffffffffffffffffffffffffff82169050919050565b6000819050919050565b82818337600083830152505050565b60005b83811015612a20578082015181840152602081019050612a05565b83811115612a2f576000848401525b50505050565b60006002820490506001821680612a4d57607f821691505b60208210811415612a6157612a60612b10565b5b50919050565b612a7082612b90565b810181811067ffffffffffffffff82111715612a8f57612a8e612b3f565b5b80604052505050565b6000612aa3826129e9565b91507fffffffffffffffffffffffffffffffffffffffffffffffffffffffffffffffff821415612ad657612ad5612ae1565b5b600182019050919050565b7f4e487b7100000000000000000000000000000000000000000000000000000000600052601160045260246000fd5b7f4e487b7100000000000000000000000000000000000000000000000000000000600052602260045260246000fd5b7f4e487b7100000000000000000000000000000000000000000000000000000000600052604160045260246000fd5b600060033d1115612b8d5760046000803e612b8a600051612ba1565b90505b90565b6000601f19601f8301169050919050565b60008160e01c9050919050565b7f455243313135353a207472616e7366657220746f206e6f6e204552433131353560008201527f526563656976657220696d706c656d656e746572000000000000000000000000602082015250565b7f455243313135353a204552433131353552656365697665722072656a6563746560008201527f6420746f6b656e73000000000000000000000000000000000000000000000000602082015250565b7f455243313135353a2062616c616e636520717565727920666f7220746865207a60008201527f65726f2061646472657373000000000000000000000000000000000000000000602082015250565b7f4f776e61626c653a206e6577206f776e657220697320746865207a65726f206160008201527f6464726573730000000000000000000000000000000000000000000000000000602082015250565b7f455243313135353a206275726e20616d6f756e7420657863656564732062616c60008201527f616e636500000000000000000000000000000000000000000000000000000000602082015250565b7f455243313135353a2063616c6c6572206973206e6f74206f776e6572206e6f7260008201527f20617070726f7665640000000000000000000000000000000000000000000000602082015250565b7f455243313135353a207472616e7366657220746f20746865207a65726f20616460008201527f6472657373000000000000000000000000000000000000000000000000000000602082015250565b7f455243313135353a207472616e736665722063616c6c6572206973206e6f742060008201527f6f776e6572206e6f7220617070726f7665640000000000000000000000000000602082015250565b7f455243313135353a206275726e2066726f6d20746865207a65726f206164647260008201527f6573730000000000000000000000000000000000000000000000000000000000602082015250565b7f455243313135353a20696e73756666696369656e742062616c616e636520666f60008201527f72207472616e7366657200000000000000000000000000000000000000000000602082015250565b7f4f776e61626c653a2063616c6c6572206973206e6f7420746865206f776e6572600082015250565b7f455243313135353a2073657474696e6720617070726f76616c2073746174757360008201527f20666f722073656c660000000000000000000000000000000000000000000000602082015250565b7f455243313135353a206163636f756e747320616e6420696473206c656e67746860008201527f206d69736d617463680000000000000000000000000000000000000000000000602082015250565b7f455243313135353a2069647320616e6420616d6f756e7473206c656e6774682060008201527f6d69736d61746368000000000000000000000000000000000000000000000000602082015250565b7f455243313135353a206d696e7420746f20746865207a65726f2061646472657360008201527f7300000000000000000000000000000000000000000000000000000000000000602082015250565b600060443d1015613039576130bc565b613041612825565b60043d036004823e80513d602482011167ffffffffffffffff821117156130695750506130bc565b808201805167ffffffffffffffff81111561308757505050506130bc565b80602083010160043d0385018111156130a45750505050506130bc565b6130b382602001850186612a67565b82955050505050505b90565b6130c88161297f565b81146130d357600080fd5b50565b6130df81612991565b81146130ea57600080fd5b50565b6130f68161299d565b811461310157600080fd5b50565b61310d816129e9565b811461311857600080fd5b5056fea26469706673582212208d862e47cdb66b0fc87d4d236aa08aa212d38ffc3b1a519a923f94621beacce764736f6c63430008040033",
  "linkReferences": {},
  "deployedLinkReferences": {}
}