{
  "_format": "hh-sol-artifact-1",
  "contractName": "NFTMarket",
  "sourceName": "contracts/NFTMarket.sol",
  "abi": [
    {
      "inputs": [],
      "stateMutability": "nonpayable",
      "type": "constructor"
    },
    {
      "anonymous": false,
      "inputs": [
        {
          "indexed": true,
          "internalType": "uint256",
          "name": "itemId",
          "type": "uint256"
        },
        {
          "indexed": true,
          "internalType": "address",
          "name": "nftContract",
          "type": "address"
        },
        {
          "indexed": true,
          "internalType": "uint256",
          "name": "tokenId",
          "type": "uint256"
        },
        {
          "indexed": false,
          "internalType": "address",
          "name": "seller",
          "type": "address"
        },
        {
          "indexed": false,
          "internalType": "address",
          "name": "owner",
          "type": "address"
        },
        {
          "indexed": false,
          "internalType": "uint256",
          "name": "price",
          "type": "uint256"
        },
        {
          "indexed": false,
          "internalType": "bool",
          "name": "sold",
          "type": "bool"
        }
      ],
      "name": "MarketItemCreated",
      "type": "event"
    },
    {
      "inputs": [
        {
          "internalType": "address",
          "name": "nftContract",
          "type": "address"
        },
        {
          "internalType": "uint256",
          "name": "tokenId",
          "type": "uint256"
        },
        {
          "internalType": "uint256",
          "name": "price",
          "type": "uint256"
        }
      ],
      "name": "createMarketItem",
      "outputs": [],
      "stateMutability": "payable",
      "type": "function"
    },
    {
      "inputs": [
        {
          "internalType": "address",
          "name": "nftContract",
          "type": "address"
        },
        {
          "internalType": "uint256",
          "name": "itemId",
          "type": "uint256"
        }
      ],
      "name": "createMarketSale",
      "outputs": [],
      "stateMutability": "payable",
      "type": "function"
    },
    {
      "inputs": [
        {
          "internalType": "address",
          "name": "nftContract",
          "type": "address"
        },
        {
          "internalType": "uint256",
          "name": "tokenId",
          "type": "uint256"
        }
      ],
      "name": "fetchHoldersItem",
      "outputs": [
        {
          "components": [
            {
              "internalType": "uint256",
              "name": "itemId",
              "type": "uint256"
            },
            {
              "internalType": "address",
              "name": "nftContract",
              "type": "address"
            },
            {
              "internalType": "uint256",
              "name": "tokenId",
              "type": "uint256"
            },
            {
              "internalType": "address payable",
              "name": "seller",
              "type": "address"
            },
            {
              "internalType": "address payable",
              "name": "owner",
              "type": "address"
            },
            {
              "internalType": "uint256",
              "name": "price",
              "type": "uint256"
            },
            {
              "internalType": "bool",
              "name": "sold",
              "type": "bool"
            }
          ],
          "internalType": "struct NFTMarket.MarketItem[]",
          "name": "",
          "type": "tuple[]"
        }
      ],
      "stateMutability": "view",
      "type": "function"
    },
    {
      "inputs": [],
      "name": "fetchItemsCreated",
      "outputs": [
        {
          "components": [
            {
              "internalType": "uint256",
              "name": "itemId",
              "type": "uint256"
            },
            {
              "internalType": "address",
              "name": "nftContract",
              "type": "address"
            },
            {
              "internalType": "uint256",
              "name": "tokenId",
              "type": "uint256"
            },
            {
              "internalType": "address payable",
              "name": "seller",
              "type": "address"
            },
            {
              "internalType": "address payable",
              "name": "owner",
              "type": "address"
            },
            {
              "internalType": "uint256",
              "name": "price",
              "type": "uint256"
            },
            {
              "internalType": "bool",
              "name": "sold",
              "type": "bool"
            }
          ],
          "internalType": "struct NFTMarket.MarketItem[]",
          "name": "",
          "type": "tuple[]"
        }
      ],
      "stateMutability": "view",
      "type": "function"
    },
    {
      "inputs": [],
      "name": "fetchMarketItems",
      "outputs": [
        {
          "components": [
            {
              "internalType": "uint256",
              "name": "itemId",
              "type": "uint256"
            },
            {
              "internalType": "address",
              "name": "nftContract",
              "type": "address"
            },
            {
              "internalType": "uint256",
              "name": "tokenId",
              "type": "uint256"
            },
            {
              "internalType": "address payable",
              "name": "seller",
              "type": "address"
            },
            {
              "internalType": "address payable",
              "name": "owner",
              "type": "address"
            },
            {
              "internalType": "uint256",
              "name": "price",
              "type": "uint256"
            },
            {
              "internalType": "bool",
              "name": "sold",
              "type": "bool"
            }
          ],
          "internalType": "struct NFTMarket.MarketItem[]",
          "name": "",
          "type": "tuple[]"
        }
      ],
      "stateMutability": "view",
      "type": "function"
    },
    {
      "inputs": [],
      "name": "fetchMyNFTs",
      "outputs": [
        {
          "components": [
            {
              "internalType": "uint256",
              "name": "itemId",
              "type": "uint256"
            },
            {
              "internalType": "address",
              "name": "nftContract",
              "type": "address"
            },
            {
              "internalType": "uint256",
              "name": "tokenId",
              "type": "uint256"
            },
            {
              "internalType": "address payable",
              "name": "seller",
              "type": "address"
            },
            {
              "internalType": "address payable",
              "name": "owner",
              "type": "address"
            },
            {
              "internalType": "uint256",
              "name": "price",
              "type": "uint256"
            },
            {
              "internalType": "bool",
              "name": "sold",
              "type": "bool"
            }
          ],
          "internalType": "struct NFTMarket.MarketItem[]",
          "name": "",
          "type": "tuple[]"
        }
      ],
      "stateMutability": "view",
      "type": "function"
    },
    {
      "inputs": [],
      "name": "getListingPrice",
      "outputs": [
        {
          "internalType": "uint256",
          "name": "",
          "type": "uint256"
        }
      ],
      "stateMutability": "view",
      "type": "function"
    }
  ],
  "bytecode": "0x60806040526658d15e1762800060045534801561001b57600080fd5b50600160008190555033600360006101000a81548173ffffffffffffffffffffffffffffffffffffffff021916908373ffffffffffffffffffffffffffffffffffffffff1602179055506125c9806100746000396000f3fe6080604052600436106100705760003560e01c806358eb2df51161004e57806358eb2df5146100f657806376b778f014610112578063c23b139e1461014f578063f064c32e1461016b57610070565b80630f08efe01461007557806312e85585146100a0578063202e3740146100cb575b600080fd5b34801561008157600080fd5b5061008a610196565b6040516100979190612162565b60405180910390f35b3480156100ac57600080fd5b506100b56104ac565b6040516100c29190612232565b60405180910390f35b3480156100d757600080fd5b506100e06104b6565b6040516100ed9190612162565b60405180910390f35b610110600480360381019061010b9190611e59565b610ac2565b005b34801561011e57600080fd5b5061013960048036038101906101349190611e1d565b610f91565b6040516101469190612162565b60405180910390f35b61016960048036038101906101649190611e1d565b611388565b005b34801561017757600080fd5b5061018061164d565b60405161018d9190612162565b60405180910390f35b606060006101a460016119e7565b905060006101b260026119e7565b6101bc60016119e7565b6101c69190612352565b90506000808267ffffffffffffffff81111561020b577f4e487b7100000000000000000000000000000000000000000000000000000000600052604160045260246000fd5b60405190808252806020026020018201604052801561024457816020015b610231611d1f565b8152602001906001900390816102295790505b50905060005b848110156104a157600073ffffffffffffffffffffffffffffffffffffffff166005600060018461027b91906122cb565b815260200190815260200160002060040160009054906101000a900473ffffffffffffffffffffffffffffffffffffffff1673ffffffffffffffffffffffffffffffffffffffff16141561048e5760006001826102d891906122cb565b90506000600560008381526020019081526020016000209050806040518060e0016040529081600082015481526020016001820160009054906101000a900473ffffffffffffffffffffffffffffffffffffffff1673ffffffffffffffffffffffffffffffffffffffff1673ffffffffffffffffffffffffffffffffffffffff168152602001600282015481526020016003820160009054906101000a900473ffffffffffffffffffffffffffffffffffffffff1673ffffffffffffffffffffffffffffffffffffffff1673ffffffffffffffffffffffffffffffffffffffff1681526020016004820160009054906101000a900473ffffffffffffffffffffffffffffffffffffffff1673ffffffffffffffffffffffffffffffffffffffff1673ffffffffffffffffffffffffffffffffffffffff168152602001600582015481526020016006820160009054906101000a900460ff161515151581525050848681518110610471577f4e487b7100000000000000000000000000000000000000000000000000000000600052603260045260246000fd5b602002602001018190525060018561048991906122cb565b945050505b808061049990612413565b91505061024a565b508094505050505090565b6000600454905090565b606060006104c460016119e7565b905060008060005b838110156106a1573373ffffffffffffffffffffffffffffffffffffffff16600560006001846104fc91906122cb565b815260200190815260200160002060040160009054906101000a900473ffffffffffffffffffffffffffffffffffffffff1673ffffffffffffffffffffffffffffffffffffffff16141561068e57600060019050600060018361055f91906122cb565b90505b85811015610675576005600060018561057b91906122cb565b815260200190815260200160002060010160009054906101000a900473ffffffffffffffffffffffffffffffffffffffff1673ffffffffffffffffffffffffffffffffffffffff166005600083815260200190815260200160002060010160009054906101000a900473ffffffffffffffffffffffffffffffffffffffff1673ffffffffffffffffffffffffffffffffffffffff1614801561065457506005600060018561062991906122cb565b8152602001908152602001600020600201546005600083815260200190815260200160002060020154145b156106625760009150610675565b808061066d90612413565b915050610562565b50801561068c5760018461068991906122cb565b93505b505b808061069990612413565b9150506104cc565b5060008267ffffffffffffffff8111156106e4577f4e487b7100000000000000000000000000000000000000000000000000000000600052604160045260246000fd5b60405190808252806020026020018201604052801561071d57816020015b61070a611d1f565b8152602001906001900390816107025790505b50905060005b84811015610ab7573373ffffffffffffffffffffffffffffffffffffffff166005600060018461075391906122cb565b815260200190815260200160002060040160009054906101000a900473ffffffffffffffffffffffffffffffffffffffff1673ffffffffffffffffffffffffffffffffffffffff161415610aa45760006001905060006001836107b691906122cb565b90505b868110156108d657600560006001856107d291906122cb565b815260200190815260200160002060010160009054906101000a900473ffffffffffffffffffffffffffffffffffffffff1673ffffffffffffffffffffffffffffffffffffffff166005600083815260200190815260200160002060010160009054906101000a900473ffffffffffffffffffffffffffffffffffffffff1673ffffffffffffffffffffffffffffffffffffffff161480156108ab57506005600060018561088091906122cb565b8152602001908152602001600020600201546005600083815260200190815260200160002060020154145b156108b957600091506108d6565b6108c383826119f5565b80806108ce90612413565b9150506107b9565b508015610aa25760006001836108ec91906122cb565b90506000600560008381526020019081526020016000209050806040518060e0016040529081600082015481526020016001820160009054906101000a900473ffffffffffffffffffffffffffffffffffffffff1673ffffffffffffffffffffffffffffffffffffffff1673ffffffffffffffffffffffffffffffffffffffff168152602001600282015481526020016003820160009054906101000a900473ffffffffffffffffffffffffffffffffffffffff1673ffffffffffffffffffffffffffffffffffffffff1673ffffffffffffffffffffffffffffffffffffffff1681526020016004820160009054906101000a900473ffffffffffffffffffffffffffffffffffffffff1673ffffffffffffffffffffffffffffffffffffffff1673ffffffffffffffffffffffffffffffffffffffff168152602001600582015481526020016006820160009054906101000a900460ff161515151581525050858781518110610a85577f4e487b7100000000000000000000000000000000000000000000000000000000600052603260045260246000fd5b6020026020010181905250600186610a9d91906122cb565b955050505b505b8080610aaf90612413565b915050610723565b508094505050505090565b60026000541415610b08576040517f08c379a0000000000000000000000000000000000000000000000000000000008152600401610aff906121f2565b60405180910390fd5b600260008190555060008111610b53576040517f08c379a0000000000000000000000000000000000000000000000000000000008152600401610b4a90612212565b60405180910390fd5b6004543414610b6134611a91565b90610ba2576040517f08c379a0000000000000000000000000000000000000000000000000000000008152600401610b999190612184565b60405180910390fd5b50610bad6001611c3e565b6000610bb960016119e7565b90506040518060e001604052808281526020018573ffffffffffffffffffffffffffffffffffffffff1681526020018481526020013373ffffffffffffffffffffffffffffffffffffffff168152602001600073ffffffffffffffffffffffffffffffffffffffff16815260200183815260200160001515815250600560008381526020019081526020016000206000820151816000015560208201518160010160006101000a81548173ffffffffffffffffffffffffffffffffffffffff021916908373ffffffffffffffffffffffffffffffffffffffff1602179055506040820151816002015560608201518160030160006101000a81548173ffffffffffffffffffffffffffffffffffffffff021916908373ffffffffffffffffffffffffffffffffffffffff16021790555060808201518160040160006101000a81548173ffffffffffffffffffffffffffffffffffffffff021916908373ffffffffffffffffffffffffffffffffffffffff16021790555060a0820151816005015560c08201518160060160006101000a81548160ff02191690831515021790555090505060008473ffffffffffffffffffffffffffffffffffffffff16636352211e856040518263ffffffff1660e01b8152600401610d989190612232565b60206040518083038186803b158015610db057600080fd5b505afa158015610dc4573d6000803e3d6000fd5b505050506040513d601f19601f82011682018060405250810190610de89190611df4565b905060008573ffffffffffffffffffffffffffffffffffffffff1663e985e9c533306040518363ffffffff1660e01b8152600401610e279291906120bd565b60206040518083038186803b158015610e3f57600080fd5b505afa158015610e53573d6000803e3d6000fd5b505050506040513d601f19601f82011682018060405250810190610e779190611ea8565b9050610eba6040518060400160405280600881526020017f53656e6465723a20000000000000000000000000000000000000000000000000815250338484611c54565b8573ffffffffffffffffffffffffffffffffffffffff166323b872dd3330886040518463ffffffff1660e01b8152600401610ef7939291906120e6565b600060405180830381600087803b158015610f1157600080fd5b505af1158015610f25573d6000803e3d6000fd5b50505050848673ffffffffffffffffffffffffffffffffffffffff16847f045dfa01dcba2b36aba1d3dc4a874f4b0c5d2fbeb8d2c4b34a7d88c8d8f929d1336000896000604051610f79949392919061211d565b60405180910390a45050506001600081905550505050565b60606000610f9f60016119e7565b905060008060005b83811015611075578560056000600184610fc191906122cb565b81526020019081526020016000206002015414801561104d575060056000600183610fec91906122cb565b815260200190815260200160002060010160009054906101000a900473ffffffffffffffffffffffffffffffffffffffff1673ffffffffffffffffffffffffffffffffffffffff168773ffffffffffffffffffffffffffffffffffffffff16145b156110625760018361105f91906122cb565b92505b808061106d90612413565b915050610fa7565b5060008267ffffffffffffffff8111156110b8577f4e487b7100000000000000000000000000000000000000000000000000000000600052604160045260246000fd5b6040519080825280602002602001820160405280156110f157816020015b6110de611d1f565b8152602001906001900390816110d65790505b50905060005b8481101561137a57866005600060018461111191906122cb565b81526020019081526020016000206002015414801561119d57506005600060018361113c91906122cb565b815260200190815260200160002060010160009054906101000a900473ffffffffffffffffffffffffffffffffffffffff1673ffffffffffffffffffffffffffffffffffffffff168873ffffffffffffffffffffffffffffffffffffffff16145b156113675760006001826111b191906122cb565b90506000600560008381526020019081526020016000209050806040518060e0016040529081600082015481526020016001820160009054906101000a900473ffffffffffffffffffffffffffffffffffffffff1673ffffffffffffffffffffffffffffffffffffffff1673ffffffffffffffffffffffffffffffffffffffff168152602001600282015481526020016003820160009054906101000a900473ffffffffffffffffffffffffffffffffffffffff1673ffffffffffffffffffffffffffffffffffffffff1673ffffffffffffffffffffffffffffffffffffffff1681526020016004820160009054906101000a900473ffffffffffffffffffffffffffffffffffffffff1673ffffffffffffffffffffffffffffffffffffffff1673ffffffffffffffffffffffffffffffffffffffff168152602001600582015481526020016006820160009054906101000a900460ff16151515158152505084868151811061134a577f4e487b7100000000000000000000000000000000000000000000000000000000600052603260045260246000fd5b602002602001018190525060018561136291906122cb565b945050505b808061137290612413565b9150506110f7565b508094505050505092915050565b600260005414156113ce576040517f08c379a00000000000000000000000000000000000000000000000000000000081526004016113c5906121f2565b60405180910390fd5b600260008190555060006005600083815260200190815260200160002060050154905060006005600084815260200190815260200160002060020154905081341461141883611a91565b90611459576040517f08c379a00000000000000000000000000000000000000000000000000000000081526004016114509190612184565b60405180910390fd5b506005600084815260200190815260200160002060030160009054906101000a900473ffffffffffffffffffffffffffffffffffffffff1673ffffffffffffffffffffffffffffffffffffffff166108fc349081150290604051600060405180830381858888f193505050501580156114d6573d6000803e3d6000fd5b508373ffffffffffffffffffffffffffffffffffffffff166323b872dd3033846040518463ffffffff1660e01b8152600401611514939291906120e6565b600060405180830381600087803b15801561152e57600080fd5b505af1158015611542573d6000803e3d6000fd5b50505050336005600085815260200190815260200160002060040160006101000a81548173ffffffffffffffffffffffffffffffffffffffff021916908373ffffffffffffffffffffffffffffffffffffffff16021790555060016005600085815260200190815260200160002060060160006101000a81548160ff0219169083151502179055506115d46002611c3e565b600360009054906101000a900473ffffffffffffffffffffffffffffffffffffffff1673ffffffffffffffffffffffffffffffffffffffff166108fc6004549081150290604051600060405180830381858888f1935050505015801561163e573d6000803e3d6000fd5b50505060016000819055505050565b6060600061165b60016119e7565b905060008060005b83811015611704573373ffffffffffffffffffffffffffffffffffffffff166005600060018461169391906122cb565b815260200190815260200160002060030160009054906101000a900473ffffffffffffffffffffffffffffffffffffffff1673ffffffffffffffffffffffffffffffffffffffff1614156116f1576001836116ee91906122cb565b92505b80806116fc90612413565b915050611663565b5060008267ffffffffffffffff811115611747577f4e487b7100000000000000000000000000000000000000000000000000000000600052604160045260246000fd5b60405190808252806020026020018201604052801561178057816020015b61176d611d1f565b8152602001906001900390816117655790505b50905060005b848110156119dc573373ffffffffffffffffffffffffffffffffffffffff16600560006001846117b691906122cb565b815260200190815260200160002060030160009054906101000a900473ffffffffffffffffffffffffffffffffffffffff1673ffffffffffffffffffffffffffffffffffffffff1614156119c957600060018261181391906122cb565b90506000600560008381526020019081526020016000209050806040518060e0016040529081600082015481526020016001820160009054906101000a900473ffffffffffffffffffffffffffffffffffffffff1673ffffffffffffffffffffffffffffffffffffffff1673ffffffffffffffffffffffffffffffffffffffff168152602001600282015481526020016003820160009054906101000a900473ffffffffffffffffffffffffffffffffffffffff1673ffffffffffffffffffffffffffffffffffffffff1673ffffffffffffffffffffffffffffffffffffffff1681526020016004820160009054906101000a900473ffffffffffffffffffffffffffffffffffffffff1673ffffffffffffffffffffffffffffffffffffffff1673ffffffffffffffffffffffffffffffffffffffff168152602001600582015481526020016006820160009054906101000a900460ff1615151515815250508486815181106119ac577f4e487b7100000000000000000000000000000000000000000000000000000000600052603260045260246000fd5b60200260200101819052506001856119c491906122cb565b945050505b80806119d490612413565b915050611786565b508094505050505090565b600081600001549050919050565b611a8d8282604051602401611a0b92919061224d565b6040516020818303038152906040527f6c0f6980000000000000000000000000000000000000000000000000000000007bffffffffffffffffffffffffffffffffffffffffffffffffffffffff19166020820180517bffffffffffffffffffffffffffffffffffffffffffffffffffffffff8381831617835250505050611cf6565b5050565b60606000821415611ad9576040518060400160405280600181526020017f30000000000000000000000000000000000000000000000000000000000000008152509050611c39565b600082905060005b60008214611b0b578080611af490612413565b915050600a82611b049190612321565b9150611ae1565b60008167ffffffffffffffff811115611b4d577f4e487b7100000000000000000000000000000000000000000000000000000000600052604160045260246000fd5b6040519080825280601f01601f191660200182016040528015611b7f5781602001600182028036833780820191505090505b5090505b60008514611c3257600182611b989190612352565b9150600a85611ba7919061245c565b6030611bb391906122cb565b60f81b818381518110611bef577f4e487b7100000000000000000000000000000000000000000000000000000000600052603260045260246000fd5b60200101907effffffffffffffffffffffffffffffffffffffffffffffffffffffffffffff1916908160001a905350600a85611c2b9190612321565b9450611b83565b8093505050505b919050565b6001816000016000828254019250508190555050565b611cf084848484604051602401611c6e94939291906121a6565b6040516020818303038152906040527fb59dbd60000000000000000000000000000000000000000000000000000000007bffffffffffffffffffffffffffffffffffffffffffffffffffffffff19166020820180517bffffffffffffffffffffffffffffffffffffffffffffffffffffffff8381831617835250505050611cf6565b50505050565b60008151905060006a636f6e736f6c652e6c6f679050602083016000808483855afa5050505050565b6040518060e0016040528060008152602001600073ffffffffffffffffffffffffffffffffffffffff16815260200160008152602001600073ffffffffffffffffffffffffffffffffffffffff168152602001600073ffffffffffffffffffffffffffffffffffffffff168152602001600081526020016000151581525090565b600081359050611daf8161254e565b92915050565b600081519050611dc48161254e565b92915050565b600081519050611dd981612565565b92915050565b600081359050611dee8161257c565b92915050565b600060208284031215611e0657600080fd5b6000611e1484828501611db5565b91505092915050565b60008060408385031215611e3057600080fd5b6000611e3e85828601611da0565b9250506020611e4f85828601611ddf565b9150509250929050565b600080600060608486031215611e6e57600080fd5b6000611e7c86828701611da0565b9350506020611e8d86828701611ddf565b9250506040611e9e86828701611ddf565b9150509250925092565b600060208284031215611eba57600080fd5b6000611ec884828501611dca565b91505092915050565b6000611edd8383612011565b60e08301905092915050565b611ef281612398565b82525050565b611f0181612386565b82525050565b611f1081612386565b82525050565b6000611f2182612286565b611f2b81856122a9565b9350611f3683612276565b8060005b83811015611f67578151611f4e8882611ed1565b9750611f598361229c565b925050600181019050611f3a565b5085935050505092915050565b611f7d816123aa565b82525050565b611f8c816123aa565b82525050565b6000611f9d82612291565b611fa781856122ba565b9350611fb78185602086016123e0565b611fc0816124eb565b840191505092915050565b6000611fd8601f836122ba565b9150611fe3826124fc565b602082019050919050565b6000611ffb601c836122ba565b915061200682612525565b602082019050919050565b60e082016000820151612027600085018261209f565b50602082015161203a6020850182611ef8565b50604082015161204d604085018261209f565b5060608201516120606060850182611ee9565b5060808201516120736080850182611ee9565b5060a082015161208660a085018261209f565b5060c082015161209960c0850182611f74565b50505050565b6120a8816123d6565b82525050565b6120b7816123d6565b82525050565b60006040820190506120d26000830185611f07565b6120df6020830184611f07565b9392505050565b60006060820190506120fb6000830186611f07565b6121086020830185611f07565b61211560408301846120ae565b949350505050565b60006080820190506121326000830187611f07565b61213f6020830186611f07565b61214c60408301856120ae565b6121596060830184611f83565b95945050505050565b6000602082019050818103600083015261217c8184611f16565b905092915050565b6000602082019050818103600083015261219e8184611f92565b905092915050565b600060808201905081810360008301526121c08187611f92565b90506121cf6020830186611f07565b6121dc6040830185611f07565b6121e96060830184611f83565b95945050505050565b6000602082019050818103600083015261220b81611fcb565b9050919050565b6000602082019050818103600083015261222b81611fee565b9050919050565b600060208201905061224760008301846120ae565b92915050565b600060408201905061226260008301856120ae565b61226f60208301846120ae565b9392505050565b6000819050602082019050919050565b600081519050919050565b600081519050919050565b6000602082019050919050565b600082825260208201905092915050565b600082825260208201905092915050565b60006122d6826123d6565b91506122e1836123d6565b9250827fffffffffffffffffffffffffffffffffffffffffffffffffffffffffffffffff038211156123165761231561248d565b5b828201905092915050565b600061232c826123d6565b9150612337836123d6565b925082612347576123466124bc565b5b828204905092915050565b600061235d826123d6565b9150612368836123d6565b92508282101561237b5761237a61248d565b5b828203905092915050565b6000612391826123b6565b9050919050565b60006123a3826123b6565b9050919050565b60008115159050919050565b600073ffffffffffffffffffffffffffffffffffffffff82169050919050565b6000819050919050565b60005b838110156123fe5780820151818401526020810190506123e3565b8381111561240d576000848401525b50505050565b600061241e826123d6565b91507fffffffffffffffffffffffffffffffffffffffffffffffffffffffffffffffff8214156124515761245061248d565b5b600182019050919050565b6000612467826123d6565b9150612472836123d6565b925082612482576124816124bc565b5b828206905092915050565b7f4e487b7100000000000000000000000000000000000000000000000000000000600052601160045260246000fd5b7f4e487b7100000000000000000000000000000000000000000000000000000000600052601260045260246000fd5b6000601f19601f8301169050919050565b7f5265656e7472616e637947756172643a207265656e7472616e742063616c6c00600082015250565b7f5072696365206d757374206265206174206c6561737420312077656900000000600082015250565b61255781612386565b811461256257600080fd5b50565b61256e816123aa565b811461257957600080fd5b50565b612585816123d6565b811461259057600080fd5b5056fea26469706673582212203d557835cbd92ee372010aeadef2705a06530305d7971553598102059c0166dd64736f6c63430008040033",
  "linkReferences": {},
  "deployedLinkReferences": {}
}